{
  "address": "0xc51f0E5d6FA0415e0e05E352a661d960D260675d",
  "abi": [
    {
      "inputs": [
        {
          "internalType": "contract IPoolAddressesProvider",
          "name": "_aaveAddressProvider",
          "type": "address"
        },
        {
          "internalType": "address",
          "name": "_uniswapV3Router",
          "type": "address"
        },
        {
          "internalType": "address",
          "name": "_sushiswapRouter",
          "type": "address"
        },
        {
          "internalType": "address",
          "name": "_sushiswapfactory",
          "type": "address"
        },
        {
          "internalType": "address",
          "name": "_quickswapV2RouterAddress",
          "type": "address"
        }
      ],
      "stateMutability": "nonpayable",
      "type": "constructor"
    },
    {
      "anonymous": false,
      "inputs": [
        {
          "indexed": true,
          "internalType": "address",
          "name": "_borrowedAsset",
          "type": "address"
        },
        {
          "indexed": true,
          "internalType": "uint256",
          "name": "_amount",
          "type": "uint256"
        },
        {
          "indexed": false,
          "internalType": "uint256",
          "name": "_premium",
          "type": "uint256"
        }
      ],
      "name": "AaveBorrowDetails",
      "type": "event"
    },
    {
      "anonymous": false,
      "inputs": [
        {
          "indexed": true,
          "internalType": "address",
          "name": "_from",
          "type": "address"
        },
        {
          "indexed": true,
          "internalType": "address",
          "name": "_assetAddress",
          "type": "address"
        },
        {
          "indexed": false,
          "internalType": "uint256",
          "name": "amount",
          "type": "uint256"
        }
      ],
      "name": "LogWithdraw",
      "type": "event"
    },
    {
      "anonymous": false,
      "inputs": [
        {
          "indexed": true,
          "internalType": "address",
          "name": "previousOwner",
          "type": "address"
        },
        {
          "indexed": true,
          "internalType": "address",
          "name": "newOwner",
          "type": "address"
        }
      ],
      "name": "OwnershipTransferred",
      "type": "event"
    },
    {
      "inputs": [],
      "name": "ADDRESSES_PROVIDER",
      "outputs": [
        {
          "internalType": "contract IPoolAddressesProvider",
          "name": "",
          "type": "address"
        }
      ],
      "stateMutability": "view",
      "type": "function"
    },
    {
      "inputs": [],
      "name": "POOL",
      "outputs": [
        {
          "internalType": "contract IPool",
          "name": "",
          "type": "address"
        }
      ],
      "stateMutability": "view",
      "type": "function"
    },
    {
      "inputs": [
        {
          "internalType": "address[]",
          "name": "assets",
          "type": "address[]"
        },
        {
          "internalType": "uint256[]",
          "name": "amounts",
          "type": "uint256[]"
        },
        {
          "internalType": "uint256[]",
          "name": "premiums",
          "type": "uint256[]"
        },
        {
          "internalType": "address",
          "name": "",
          "type": "address"
        },
        {
          "internalType": "bytes",
          "name": "params",
          "type": "bytes"
        }
      ],
      "name": "executeOperation",
      "outputs": [
        {
          "internalType": "bool",
          "name": "",
          "type": "bool"
        }
      ],
      "stateMutability": "nonpayable",
      "type": "function"
    },
    {
      "inputs": [],
      "name": "owner",
      "outputs": [
        {
          "internalType": "address",
          "name": "",
          "type": "address"
        }
      ],
      "stateMutability": "view",
      "type": "function"
    },
    {
      "inputs": [],
      "name": "quickRouter",
      "outputs": [
        {
          "internalType": "contract IUniswapV2Router02",
          "name": "",
          "type": "address"
        }
      ],
      "stateMutability": "view",
      "type": "function"
    },
    {
      "inputs": [],
      "name": "renounceOwnership",
      "outputs": [],
      "stateMutability": "nonpayable",
      "type": "function"
    },
    {
      "inputs": [
        {
          "components": [
            {
              "internalType": "address",
              "name": "token0",
              "type": "address"
            },
            {
              "internalType": "address",
              "name": "token1",
              "type": "address"
            },
            {
              "internalType": "uint24",
              "name": "pool1Fee",
              "type": "uint24"
            },
            {
              "internalType": "uint256",
              "name": "amount0",
              "type": "uint256"
            },
            {
              "internalType": "uint24",
              "name": "pool2Fee",
              "type": "uint24"
            },
            {
              "internalType": "address",
              "name": "sharedAddress",
              "type": "address"
            },
            {
              "internalType": "bool",
              "name": "uniuniquick",
              "type": "bool"
            },
            {
              "internalType": "bool",
              "name": "uniunisushi",
              "type": "bool"
            },
            {
              "internalType": "bool",
              "name": "uniquick",
              "type": "bool"
            },
            {
              "internalType": "bool",
              "name": "unisushi",
              "type": "bool"
            },
            {
              "internalType": "bool",
              "name": "quickuni",
              "type": "bool"
            },
            {
              "internalType": "bool",
              "name": "quicksushi",
              "type": "bool"
            },
            {
              "internalType": "bool",
              "name": "sushiuni",
              "type": "bool"
            },
            {
              "internalType": "bool",
              "name": "sushiquick",
              "type": "bool"
            }
          ],
          "internalType": "struct AaveUniQuick.FlashParams",
          "name": "_data",
          "type": "tuple"
        }
      ],
      "name": "startTransaction",
      "outputs": [],
      "stateMutability": "nonpayable",
      "type": "function"
    },
    {
      "inputs": [
        {
          "internalType": "address",
          "name": "newOwner",
          "type": "address"
        }
      ],
      "name": "transferOwnership",
      "outputs": [],
      "stateMutability": "nonpayable",
      "type": "function"
    },
    {
      "inputs": [],
      "name": "uniswapV3Router",
      "outputs": [
        {
          "internalType": "contract ISwapRouter",
          "name": "",
          "type": "address"
        }
      ],
      "stateMutability": "view",
      "type": "function"
    },
    {
      "inputs": [
        {
          "internalType": "address",
          "name": "_assetAddress",
          "type": "address"
        }
      ],
      "name": "withdraw",
      "outputs": [],
      "stateMutability": "nonpayable",
      "type": "function"
    },
    {
      "stateMutability": "payable",
      "type": "receive"
    }
  ],
  "transactionHash": "0xe35657c3bf7127b6c16c30db663845a13057b41f5b76419e244fed1de5d7f31e",
  "args": [
    "0xa97684ead0e402dC232d5A977953DF7ECBaB3CDb",
    "0xE592427A0AEce92De3Edee1F18E0157C05861564",
    "0x1b02dA8Cb0d097eB8D57A175b88c7D8b47997506",
    "0xc35DADB65012eC5796536bD9864eD8773aBc74C4",
    "0xa5E0829CaCEd8fFDD4De3c43696c57F7D7A678ff"
  ],
  "numDeployments": 30,
  "solcInputHash": "62bca7dcde009f4c5efbe534953f22a2",
  "bytecode": "0x6101406040523480156200001257600080fd5b50604051620047e6380380620047e683398181016040528101906200003891906200035f565b848073ffffffffffffffffffffffffffffffffffffffff1660808173ffffffffffffffffffffffffffffffffffffffff1660601b815250508073ffffffffffffffffffffffffffffffffffffffff1663026b1d5f6040518163ffffffff1660e01b815260040160206040518083038186803b158015620000b757600080fd5b505afa158015620000cc573d6000803e3d6000fd5b505050506040513d601f19601f82011682018060405250810190620000f2919062000333565b73ffffffffffffffffffffffffffffffffffffffff1660a08173ffffffffffffffffffffffffffffffffffffffff1660601b8152505050620001496200013d6200023960201b60201c565b6200024160201b60201c565b600180819055508373ffffffffffffffffffffffffffffffffffffffff1660e08173ffffffffffffffffffffffffffffffffffffffff1660601b815250508073ffffffffffffffffffffffffffffffffffffffff1660c08173ffffffffffffffffffffffffffffffffffffffff1660601b815250508273ffffffffffffffffffffffffffffffffffffffff166101008173ffffffffffffffffffffffffffffffffffffffff1660601b815250508173ffffffffffffffffffffffffffffffffffffffff166101208173ffffffffffffffffffffffffffffffffffffffff1660601b8152505050505050506200045d565b600033905090565b60008060009054906101000a900473ffffffffffffffffffffffffffffffffffffffff169050816000806101000a81548173ffffffffffffffffffffffffffffffffffffffff021916908373ffffffffffffffffffffffffffffffffffffffff1602179055508173ffffffffffffffffffffffffffffffffffffffff168173ffffffffffffffffffffffffffffffffffffffff167f8be0079c531659141344cd1fd0a4f28419497f9722a3daafe3b4186f6b6457e060405160405180910390a35050565b600081519050620003168162000429565b92915050565b6000815190506200032d8162000443565b92915050565b6000602082840312156200034657600080fd5b6000620003568482850162000305565b91505092915050565b600080600080600060a086880312156200037857600080fd5b600062000388888289016200031c565b95505060206200039b8882890162000305565b9450506040620003ae8882890162000305565b9350506060620003c18882890162000305565b9250506080620003d48882890162000305565b9150509295509295909350565b6000620003ee8262000409565b9050919050565b60006200040282620003e1565b9050919050565b600073ffffffffffffffffffffffffffffffffffffffff82169050919050565b6200043481620003e1565b81146200044057600080fd5b50565b6200044e81620003f5565b81146200045a57600080fd5b50565b60805160601c60a05160601c60c05160601c60e05160601c6101005160601c6101205160601c6142e8620004fe6000396000611d2401526000611e4701526000818161026d015281816118a30152818161194101528181611e830152611f550152600081816105d001528181611a1b0152611c0d0152600081816105ac015281816106fb01528181610e0001526117360152600061024901526142e86000f3fe6080604052600436106100955760003560e01c80638d252c62116100595780638d252c62146101625780638da5cb5b1461018d578063920f5c84146101b8578063f2fde38b146101f5578063fa17a4b21461021e5761009c565b80630542975c146100a15780632c76d7a6146100cc57806351cff8d9146100f7578063715018a6146101205780637535d246146101375761009c565b3661009c57005b600080fd5b3480156100ad57600080fd5b506100b6610247565b6040516100c3919061368a565b60405180910390f35b3480156100d857600080fd5b506100e161026b565b6040516100ee91906136c0565b60405180910390f35b34801561010357600080fd5b5061011e60048036038101906101199190612bb7565b61028f565b005b34801561012c57600080fd5b50610135610522565b005b34801561014357600080fd5b5061014c6105aa565b60405161015991906136a5565b60405180910390f35b34801561016e57600080fd5b506101776105ce565b60405161018491906136db565b60405180910390f35b34801561019957600080fd5b506101a26105f2565b6040516101af9190613577565b60405180910390f35b3480156101c457600080fd5b506101df60048036038101906101da9190612c09565b61061b565b6040516101ec919061366f565b60405180910390f35b34801561020157600080fd5b5061021c60048036038101906102179190612bb7565b610ee5565b005b34801561022a57600080fd5b5061024560048036038101906102409190612d5b565b610fdd565b005b7f000000000000000000000000000000000000000000000000000000000000000081565b7f000000000000000000000000000000000000000000000000000000000000000081565b610297611246565b73ffffffffffffffffffffffffffffffffffffffff166102b56105f2565b73ffffffffffffffffffffffffffffffffffffffff161461030b576040517f08c379a000000000000000000000000000000000000000000000000000000000815260040161030290613838565b60405180910390fd5b60026001541415610351576040517f08c379a000000000000000000000000000000000000000000000000000000000815260040161034890613918565b60405180910390fd5b600260018190555060008073ffffffffffffffffffffffffffffffffffffffff168273ffffffffffffffffffffffffffffffffffffffff1614156103fb5760003090508073ffffffffffffffffffffffffffffffffffffffff163191503373ffffffffffffffffffffffffffffffffffffffff166108fc839081150290604051600060405180830381858888f193505050501580156103f4573d6000803e3d6000fd5b50506104b2565b8173ffffffffffffffffffffffffffffffffffffffff166370a08231306040518263ffffffff1660e01b81526004016104349190613577565b60206040518083038186803b15801561044c57600080fd5b505afa158015610460573d6000803e3d6000fd5b505050506040513d601f19601f820116820180604052508101906104849190612d85565b90506104b133828473ffffffffffffffffffffffffffffffffffffffff1661124e9092919063ffffffff16565b5b8173ffffffffffffffffffffffffffffffffffffffff163373ffffffffffffffffffffffffffffffffffffffff167f9207361cc2a04b9c7a06691df1eb87c6a63957ae88bf01d0d18c81e3d12720998360405161050f9190613992565b60405180910390a3506001808190555050565b61052a611246565b73ffffffffffffffffffffffffffffffffffffffff166105486105f2565b73ffffffffffffffffffffffffffffffffffffffff161461059e576040517f08c379a000000000000000000000000000000000000000000000000000000000815260040161059590613838565b60405180910390fd5b6105a860006112d4565b565b7f000000000000000000000000000000000000000000000000000000000000000081565b7f000000000000000000000000000000000000000000000000000000000000000081565b60008060009054906101000a900473ffffffffffffffffffffffffffffffffffffffff16905090565b6000808a8a6000818110610658577f4e487b7100000000000000000000000000000000000000000000000000000000600052603260045260246000fd5b905060200201602081019061066d9190612bb7565b90506000898960008181106106ab577f4e487b7100000000000000000000000000000000000000000000000000000000600052603260045260246000fd5b9050602002013590506000888860008181106106f0577f4e487b7100000000000000000000000000000000000000000000000000000000600052603260045260246000fd5b9050602002013590507f000000000000000000000000000000000000000000000000000000000000000073ffffffffffffffffffffffffffffffffffffffff163373ffffffffffffffffffffffffffffffffffffffff1614610787576040517f08c379a000000000000000000000000000000000000000000000000000000000815260040161077e90613898565b60405180910390fd5b60008373ffffffffffffffffffffffffffffffffffffffff166370a08231306040518263ffffffff1660e01b81526004016107c29190613577565b60206040518083038186803b1580156107da57600080fd5b505afa1580156107ee573d6000803e3d6000fd5b505050506040513d601f19601f820116820180604052508101906108129190612d85565b905060008311610857576040517f08c379a000000000000000000000000000000000000000000000000000000000815260040161084e906138d8565b60405180910390fd5b828114610899576040517f08c379a000000000000000000000000000000000000000000000000000000000815260040161089090613858565b60405180910390fd5b828473ffffffffffffffffffffffffffffffffffffffff167f2e30dc796dffed39db84c7dd3248c08d1852da65e0e3da58b6cde0d738441337846040516108e09190613992565b60405180910390a3600087878101906108f99190612d5b565b905061090481611398565b6000610919848661163890919063ffffffff16565b905060468673ffffffffffffffffffffffffffffffffffffffff166370a08231306040518263ffffffff1660e01b81526004016109569190613577565b60206040518083038186803b15801561096e57600080fd5b505afa158015610982573d6000803e3d6000fd5b505050506040513d601f19601f820116820180604052508101906109a69190612d85565b10156109e7576040517f08c379a00000000000000000000000000000000000000000000000000000000081526004016109de90613818565b60405180910390fd5b60508673ffffffffffffffffffffffffffffffffffffffff166370a08231306040518263ffffffff1660e01b8152600401610a229190613577565b60206040518083038186803b158015610a3a57600080fd5b505afa158015610a4e573d6000803e3d6000fd5b505050506040513d601f19601f82011682018060405250810190610a729190612d85565b1015610ab3576040517f08c379a0000000000000000000000000000000000000000000000000000000008152600401610aaa90613778565b60405180910390fd5b605a8673ffffffffffffffffffffffffffffffffffffffff166370a08231306040518263ffffffff1660e01b8152600401610aee9190613577565b60206040518083038186803b158015610b0657600080fd5b505afa158015610b1a573d6000803e3d6000fd5b505050506040513d601f19601f82011682018060405250810190610b3e9190612d85565b1015610b7f576040517f08c379a0000000000000000000000000000000000000000000000000000000008152600401610b76906137f8565b60405180910390fd5b60648673ffffffffffffffffffffffffffffffffffffffff166370a08231306040518263ffffffff1660e01b8152600401610bba9190613577565b60206040518083038186803b158015610bd257600080fd5b505afa158015610be6573d6000803e3d6000fd5b505050506040513d601f19601f82011682018060405250810190610c0a9190612d85565b1015610c4b576040517f08c379a0000000000000000000000000000000000000000000000000000000008152600401610c42906137b8565b60405180910390fd5b606e8673ffffffffffffffffffffffffffffffffffffffff166370a08231306040518263ffffffff1660e01b8152600401610c869190613577565b60206040518083038186803b158015610c9e57600080fd5b505afa158015610cb2573d6000803e3d6000fd5b505050506040513d601f19601f82011682018060405250810190610cd69190612d85565b1015610d17576040517f08c379a0000000000000000000000000000000000000000000000000000000008152600401610d0e906137b8565b60405180910390fd5b808673ffffffffffffffffffffffffffffffffffffffff166370a08231306040518263ffffffff1660e01b8152600401610d519190613577565b60206040518083038186803b158015610d6957600080fd5b505afa158015610d7d573d6000803e3d6000fd5b505050506040513d601f19601f82011682018060405250810190610da19190612d85565b1015610de2576040517f08c379a0000000000000000000000000000000000000000000000000000000008152600401610dd990613878565b60405180910390fd5b8573ffffffffffffffffffffffffffffffffffffffff1663095ea7b37f0000000000000000000000000000000000000000000000000000000000000000836040518363ffffffff1660e01b8152600401610e3d929190613646565b602060405180830381600087803b158015610e5757600080fd5b505af1158015610e6b573d6000803e3d6000fd5b505050506040513d601f19601f82011682018060405250810190610e8f9190612d32565b610ece576040517f08c379a0000000000000000000000000000000000000000000000000000000008152600401610ec5906137d8565b60405180910390fd5b600196505050505050509998505050505050505050565b610eed611246565b73ffffffffffffffffffffffffffffffffffffffff16610f0b6105f2565b73ffffffffffffffffffffffffffffffffffffffff1614610f61576040517f08c379a0000000000000000000000000000000000000000000000000000000008152600401610f5890613838565b60405180910390fd5b600073ffffffffffffffffffffffffffffffffffffffff168173ffffffffffffffffffffffffffffffffffffffff161415610fd1576040517f08c379a0000000000000000000000000000000000000000000000000000000008152600401610fc890613758565b60405180910390fd5b610fda816112d4565b50565b610fe5611246565b73ffffffffffffffffffffffffffffffffffffffff166110036105f2565b73ffffffffffffffffffffffffffffffffffffffff1614611059576040517f08c379a000000000000000000000000000000000000000000000000000000000815260040161105090613838565b60405180910390fd5b60008160000151905060008260600151905060008360405160200161107e9190613976565b60405160208183030381529060405290506000600167ffffffffffffffff8111156110d2577f4e487b7100000000000000000000000000000000000000000000000000000000600052604160045260246000fd5b6040519080825280602002602001820160405280156111005781602001602082028036833780820191505090505b509050838160008151811061113e577f4e487b7100000000000000000000000000000000000000000000000000000000600052603260045260246000fd5b602002602001019073ffffffffffffffffffffffffffffffffffffffff16908173ffffffffffffffffffffffffffffffffffffffff16815250506000600167ffffffffffffffff8111156111bb577f4e487b7100000000000000000000000000000000000000000000000000000000600052604160045260246000fd5b6040519080825280602002602001820160405280156111e95781602001602082028036833780820191505090505b5090508381600081518110611227577f4e487b7100000000000000000000000000000000000000000000000000000000600052603260045260246000fd5b60200260200101818152505061123e82828561164e565b505050505050565b600033905090565b6112cf8363a9059cbb60e01b848460405160240161126d929190613646565b604051602081830303815290604052907bffffffffffffffffffffffffffffffffffffffffffffffffffffffff19166020820180517bffffffffffffffffffffffffffffffffffffffffffffffffffffffff83818316178352505050506117d4565b505050565b60008060009054906101000a900473ffffffffffffffffffffffffffffffffffffffff169050816000806101000a81548173ffffffffffffffffffffffffffffffffffffffff021916908373ffffffffffffffffffffffffffffffffffffffff1602179055508173ffffffffffffffffffffffffffffffffffffffff168173ffffffffffffffffffffffffffffffffffffffff167f8be0079c531659141344cd1fd0a4f28419497f9722a3daafe3b4186f6b6457e060405160405180910390a35050565b60008160000151905060008260200151905060008360400151905060008460a00151905060008560800151905060008573ffffffffffffffffffffffffffffffffffffffff166370a08231306040518263ffffffff1660e01b81526004016114009190613577565b60206040518083038186803b15801561141857600080fd5b505afa15801561142c573d6000803e3d6000fd5b505050506040513d601f19601f820116820180604052508101906114509190612d85565b9050600080600115158960c00151151514156114b85761147483898888888c61189b565b90508673ffffffffffffffffffffffffffffffffffffffff168873ffffffffffffffffffffffffffffffffffffffff16146114b7576114b481888a6119fb565b91505b5b600115158960e001511515141561151b576114d783898888888c61189b565b90508673ffffffffffffffffffffffffffffffffffffffff168873ffffffffffffffffffffffffffffffffffffffff161461151a5761151787828a611d1f565b91505b5b60011515896101000151151514156115495761153983898989611e7b565b905061154681888a6119fb565b91505b60011515896101200151151514156115775761156783898989611e7b565b905061157487828a611d1f565b91505b60011515896101400151151514156115a5576115948389896119fb565b90506115a281888a89611e7b565b91505b60011515896101600151151514156115d2576115c28389896119fb565b90506115cf87828a611d1f565b91505b6001151589610180015115151415611600576115ef888489611d1f565b90506115fd81888a89611e7b565b91505b60011515896101a001511515141561162d5761161d888489611d1f565b905061162a81888a6119fb565b91505b505050505050505050565b600081836116469190613ba8565b905092915050565b60003090506000309050600080865167ffffffffffffffff81111561169c577f4e487b7100000000000000000000000000000000000000000000000000000000600052604160045260246000fd5b6040519080825280602002602001820160405280156116ca5781602001602082028036833780820191505090505b50905060005b8751811015611733576000828281518110611714577f4e487b7100000000000000000000000000000000000000000000000000000000600052603260045260246000fd5b602002602001018181525050808061172b90613df4565b9150506116d0565b507f000000000000000000000000000000000000000000000000000000000000000073ffffffffffffffffffffffffffffffffffffffff1663ab9c4b5d85898985888b896040518863ffffffff1660e01b815260040161179997969594939291906135bb565b600060405180830381600087803b1580156117b357600080fd5b505af11580156117c7573d6000803e3d6000fd5b5050505050505050505050565b6000611836826040518060400160405280602081526020017f5361666545524332303a206c6f772d6c6576656c2063616c6c206661696c65648152508573ffffffffffffffffffffffffffffffffffffffff1661200d9092919063ffffffff16565b905060008151111561189657808060200190518101906118569190612d32565b611895576040517f08c379a000000000000000000000000000000000000000000000000000000000815260040161188c906138f8565b60405180910390fd5b5b505050565b60006118c8867f000000000000000000000000000000000000000000000000000000000000000089612025565b60006040518060a0016040528088888888886040516020016118ee959493929190613501565b60405160208183030381529060405281526020013073ffffffffffffffffffffffffffffffffffffffff16815260200160c84261192b9190613ba8565b81526020018981526020016000815250905060007f000000000000000000000000000000000000000000000000000000000000000073ffffffffffffffffffffffffffffffffffffffff1663c04b8d59836040518263ffffffff1660e01b81526004016119989190613938565b602060405180830381600087803b1580156119b257600080fd5b505af11580156119c6573d6000803e3d6000fd5b505050506040513d601f19601f820116820180604052508101906119ea9190612d85565b905080925050509695505050505050565b60008273ffffffffffffffffffffffffffffffffffffffff1663095ea7b37f0000000000000000000000000000000000000000000000000000000000000000866040518363ffffffff1660e01b8152600401611a58929190613646565b602060405180830381600087803b158015611a7257600080fd5b505af1158015611a86573d6000803e3d6000fd5b505050506040513d601f19601f82011682018060405250810190611aaa9190612d32565b506000600267ffffffffffffffff811115611aee577f4e487b7100000000000000000000000000000000000000000000000000000000600052604160045260246000fd5b604051908082528060200260200182016040528015611b1c5781602001602082028036833780820191505090505b5090508381600081518110611b5a577f4e487b7100000000000000000000000000000000000000000000000000000000600052603260045260246000fd5b602002602001019073ffffffffffffffffffffffffffffffffffffffff16908173ffffffffffffffffffffffffffffffffffffffff16815250508281600181518110611bcf577f4e487b7100000000000000000000000000000000000000000000000000000000600052603260045260246000fd5b602002602001019073ffffffffffffffffffffffffffffffffffffffff16908173ffffffffffffffffffffffffffffffffffffffff168152505060007f000000000000000000000000000000000000000000000000000000000000000073ffffffffffffffffffffffffffffffffffffffff166338ed1739876000853060c842611c599190613ba8565b6040518663ffffffff1660e01b8152600401611c799594939291906139dd565b600060405180830381600087803b158015611c9357600080fd5b505af1158015611ca7573d6000803e3d6000fd5b505050506040513d6000823e3d601f19601f82011682018060405250810190611cd09190612cf1565b600181518110611d09577f4e487b7100000000000000000000000000000000000000000000000000000000600052603260045260246000fd5b6020026020010151905080925050509392505050565b6000807f000000000000000000000000000000000000000000000000000000000000000073ffffffffffffffffffffffffffffffffffffffff1663e6a4390586856040518363ffffffff1660e01b8152600401611d7d929190613592565b60206040518083038186803b158015611d9557600080fd5b505afa158015611da9573d6000803e3d6000fd5b505050506040513d601f19601f82011682018060405250810190611dcd9190612be0565b9050600073ffffffffffffffffffffffffffffffffffffffff168173ffffffffffffffffffffffffffffffffffffffff161415611e3f576040517f08c379a0000000000000000000000000000000000000000000000000000000008152600401611e3690613738565b60405180910390fd5b6000611e6d857f0000000000000000000000000000000000000000000000000000000000000000888761217a565b905080925050509392505050565b6000611ea8847f000000000000000000000000000000000000000000000000000000000000000087612025565b60006040518061010001604052808673ffffffffffffffffffffffffffffffffffffffff1681526020018573ffffffffffffffffffffffffffffffffffffffff1681526020018462ffffff1681526020013073ffffffffffffffffffffffffffffffffffffffff16815260200160c842611f229190613ba8565b815260200187815260200160008152602001600073ffffffffffffffffffffffffffffffffffffffff16815250905060007f000000000000000000000000000000000000000000000000000000000000000073ffffffffffffffffffffffffffffffffffffffff1663414bf389836040518263ffffffff1660e01b8152600401611fac919061395a565b602060405180830381600087803b158015611fc657600080fd5b505af1158015611fda573d6000803e3d6000fd5b505050506040513d601f19601f82011682018060405250810190611ffe9190612d85565b90508092505050949350505050565b606061201c8484600085612487565b90509392505050565b6000808473ffffffffffffffffffffffffffffffffffffffff1663095ea7b360e01b858560405160240161205a929190613646565b604051602081830303815290604052907bffffffffffffffffffffffffffffffffffffffffffffffffffffffff19166020820180517bffffffffffffffffffffffffffffffffffffffffffffffffffffffff83818316178352505050506040516120c49190613560565b6000604051808303816000865af19150503d8060008114612101576040519150601f19603f3d011682016040523d82523d6000602084013e612106565b606091505b509150915081801561213457506000815114806121335750808060200190518101906121329190612d32565b5b5b612173576040517f08c379a000000000000000000000000000000000000000000000000000000000815260040161216a90613718565b60405180910390fd5b5050505050565b60008273ffffffffffffffffffffffffffffffffffffffff1663095ea7b385876040518363ffffffff1660e01b81526004016121b7929190613646565b602060405180830381600087803b1580156121d157600080fd5b505af11580156121e5573d6000803e3d6000fd5b505050506040513d601f19601f820116820180604052508101906122099190612d32565b5060006064605f61221c8787878b61259b565b6122269190613c2f565b6122309190613bfe565b90506000600267ffffffffffffffff811115612275577f4e487b7100000000000000000000000000000000000000000000000000000000600052604160045260246000fd5b6040519080825280602002602001820160405280156122a35781602001602082028036833780820191505090505b50905084816000815181106122e1577f4e487b7100000000000000000000000000000000000000000000000000000000600052603260045260246000fd5b602002602001019073ffffffffffffffffffffffffffffffffffffffff16908173ffffffffffffffffffffffffffffffffffffffff16815250508381600181518110612356577f4e487b7100000000000000000000000000000000000000000000000000000000600052603260045260246000fd5b602002602001019073ffffffffffffffffffffffffffffffffffffffff16908173ffffffffffffffffffffffffffffffffffffffff168152505060008673ffffffffffffffffffffffffffffffffffffffff166338ed17398985853060c8426123bf9190613ba8565b6040518663ffffffff1660e01b81526004016123df959493929190613a37565b600060405180830381600087803b1580156123f957600080fd5b505af115801561240d573d6000803e3d6000fd5b505050506040513d6000823e3d601f19601f820116820180604052508101906124369190612cf1565b60018151811061246f577f4e487b7100000000000000000000000000000000000000000000000000000000600052603260045260246000fd5b60200260200101519050809350505050949350505050565b6060824710156124cc576040517f08c379a00000000000000000000000000000000000000000000000000000000081526004016124c390613798565b60405180910390fd5b6124d5856127dc565b612514576040517f08c379a000000000000000000000000000000000000000000000000000000000815260040161250b906138b8565b60405180910390fd5b6000808673ffffffffffffffffffffffffffffffffffffffff16858760405161253d9190613560565b60006040518083038185875af1925050503d806000811461257a576040519150601f19603f3d011682016040523d82523d6000602084013e61257f565b606091505b509150915061258f8282866127ff565b92505050949350505050565b600080600267ffffffffffffffff8111156125df577f4e487b7100000000000000000000000000000000000000000000000000000000600052604160045260246000fd5b60405190808252806020026020018201604052801561260d5781602001602082028036833780820191505090505b509050848160008151811061264b577f4e487b7100000000000000000000000000000000000000000000000000000000600052603260045260246000fd5b602002602001019073ffffffffffffffffffffffffffffffffffffffff16908173ffffffffffffffffffffffffffffffffffffffff168152505083816001815181106126c0577f4e487b7100000000000000000000000000000000000000000000000000000000600052603260045260246000fd5b602002602001019073ffffffffffffffffffffffffffffffffffffffff16908173ffffffffffffffffffffffffffffffffffffffff168152505060008673ffffffffffffffffffffffffffffffffffffffff1663d06ca61f85846040518363ffffffff1660e01b81526004016127379291906139ad565b60006040518083038186803b15801561274f57600080fd5b505afa158015612763573d6000803e3d6000fd5b505050506040513d6000823e3d601f19601f8201168201806040525081019061278c9190612cf1565b6001815181106127c5577f4e487b7100000000000000000000000000000000000000000000000000000000600052603260045260246000fd5b602002602001015190508092505050949350505050565b6000808273ffffffffffffffffffffffffffffffffffffffff163b119050919050565b6060831561280f5782905061285f565b6000835111156128225782518084602001fd5b816040517f08c379a000000000000000000000000000000000000000000000000000000000815260040161285691906136f6565b60405180910390fd5b9392505050565b600061287961287484613ab6565b613a91565b9050808382526020820190508285602086028201111561289857600080fd5b60005b858110156128c857816128ae8882612ba2565b84526020840193506020830192505060018101905061289b565b5050509392505050565b6000813590506128e181614256565b92915050565b6000815190506128f681614256565b92915050565b60008083601f84011261290e57600080fd5b8235905067ffffffffffffffff81111561292757600080fd5b60208301915083602082028301111561293f57600080fd5b9250929050565b60008083601f84011261295857600080fd5b8235905067ffffffffffffffff81111561297157600080fd5b60208301915083602082028301111561298957600080fd5b9250929050565b600082601f8301126129a157600080fd5b81516129b1848260208601612866565b91505092915050565b6000813590506129c98161426d565b92915050565b6000815190506129de8161426d565b92915050565b60008083601f8401126129f657600080fd5b8235905067ffffffffffffffff811115612a0f57600080fd5b602083019150836001820283011115612a2757600080fd5b9250929050565b60006101c08284031215612a4157600080fd5b612a4c6101c0613a91565b90506000612a5c848285016128d2565b6000830152506020612a70848285016128d2565b6020830152506040612a8484828501612b78565b6040830152506060612a9884828501612b8d565b6060830152506080612aac84828501612b78565b60808301525060a0612ac0848285016128d2565b60a08301525060c0612ad4848285016129ba565b60c08301525060e0612ae8848285016129ba565b60e083015250610100612afd848285016129ba565b61010083015250610120612b13848285016129ba565b61012083015250610140612b29848285016129ba565b61014083015250610160612b3f848285016129ba565b61016083015250610180612b55848285016129ba565b610180830152506101a0612b6b848285016129ba565b6101a08301525092915050565b600081359050612b8781614284565b92915050565b600081359050612b9c8161429b565b92915050565b600081519050612bb18161429b565b92915050565b600060208284031215612bc957600080fd5b6000612bd7848285016128d2565b91505092915050565b600060208284031215612bf257600080fd5b6000612c00848285016128e7565b91505092915050565b600080600080600080600080600060a08a8c031215612c2757600080fd5b60008a013567ffffffffffffffff811115612c4157600080fd5b612c4d8c828d016128fc565b995099505060208a013567ffffffffffffffff811115612c6c57600080fd5b612c788c828d01612946565b975097505060408a013567ffffffffffffffff811115612c9757600080fd5b612ca38c828d01612946565b95509550506060612cb68c828d016128d2565b93505060808a013567ffffffffffffffff811115612cd357600080fd5b612cdf8c828d016129e4565b92509250509295985092959850929598565b600060208284031215612d0357600080fd5b600082015167ffffffffffffffff811115612d1d57600080fd5b612d2984828501612990565b91505092915050565b600060208284031215612d4457600080fd5b6000612d52848285016129cf565b91505092915050565b60006101c08284031215612d6e57600080fd5b6000612d7c84828501612a2e565b91505092915050565b600060208284031215612d9757600080fd5b6000612da584828501612ba2565b91505092915050565b6000612dba8383612dde565b60208301905092915050565b6000612dd283836134e3565b60208301905092915050565b612de781613c89565b82525050565b612df681613c89565b82525050565b612e0d612e0882613c89565b613e3d565b82525050565b6000612e1e82613b02565b612e288185613b48565b9350612e3383613ae2565b8060005b83811015612e64578151612e4b8882612dae565b9750612e5683613b2e565b925050600181019050612e37565b5085935050505092915050565b6000612e7c82613b0d565b612e868185613b59565b9350612e9183613af2565b8060005b83811015612ec2578151612ea98882612dc6565b9750612eb483613b3b565b925050600181019050612e95565b5085935050505092915050565b612ed881613c9b565b82525050565b612ee781613c9b565b82525050565b6000612ef882613b18565b612f028185613b6a565b9350612f12818560208601613d90565b612f1b81613f00565b840191505092915050565b6000612f3182613b18565b612f3b8185613b7b565b9350612f4b818560208601613d90565b612f5481613f00565b840191505092915050565b6000612f6a82613b18565b612f748185613b8c565b9350612f84818560208601613d90565b80840191505092915050565b612f9981613cee565b82525050565b612fa881613d12565b82525050565b612fb781613d36565b82525050565b612fc681613d5a565b82525050565b612fd581613d7e565b82525050565b6000612fe682613b23565b612ff08185613b97565b9350613000818560208601613d90565b61300981613f00565b840191505092915050565b6000613021600283613b97565b915061302c82613f2b565b602082019050919050565b6000613044600f83613b97565b915061304f82613f54565b602082019050919050565b6000613067602683613b97565b915061307282613f7d565b604082019050919050565b600061308a601483613b97565b915061309582613fcc565b602082019050919050565b60006130ad602683613b97565b91506130b882613ff5565b604082019050919050565b60006130d0601583613b97565b91506130db82614044565b602082019050919050565b60006130f3600e83613b97565b91506130fe8261406d565b602082019050919050565b6000613116601483613b97565b915061312182614096565b602082019050919050565b6000613139601483613b97565b9150613144826140bf565b602082019050919050565b600061315c602083613b97565b9150613167826140e8565b602082019050919050565b600061317f601383613b97565b915061318a82614111565b602082019050919050565b60006131a2602083613b97565b91506131ad8261413a565b602082019050919050565b60006131c5600883613b97565b91506131d082614163565b602082019050919050565b60006131e8601d83613b97565b91506131f38261418c565b602082019050919050565b600061320b600c83613b97565b9150613216826141b5565b602082019050919050565b600061322e602a83613b97565b9150613239826141de565b604082019050919050565b6000613251601f83613b97565b915061325c8261422d565b602082019050919050565b600060a08301600083015184820360008601526132848282612eed565b91505060208301516132996020860182612dde565b5060408301516132ac60408601826134e3565b5060608301516132bf60608601826134e3565b5060808301516132d260808601826134e3565b508091505092915050565b610100820160008201516132f46000850182612dde565b5060208201516133076020850182612dde565b50604082015161331a60408501826134bd565b50606082015161332d6060850182612dde565b50608082015161334060808501826134e3565b5060a082015161335360a08501826134e3565b5060c082015161336660c08501826134e3565b5060e082015161337960e085018261349f565b50505050565b6101c0820160008201516133966000850182612dde565b5060208201516133a96020850182612dde565b5060408201516133bc60408501826134bd565b5060608201516133cf60608501826134e3565b5060808201516133e260808501826134bd565b5060a08201516133f560a0850182612dde565b5060c082015161340860c0850182612ecf565b5060e082015161341b60e0850182612ecf565b50610100820151613430610100850182612ecf565b50610120820151613445610120850182612ecf565b5061014082015161345a610140850182612ecf565b5061016082015161346f610160850182612ecf565b50610180820151613484610180850182612ecf565b506101a08201516134996101a0850182612ecf565b50505050565b6134a881613cb5565b82525050565b6134b781613ca7565b82525050565b6134c681613cd5565b82525050565b6134dd6134d882613cd5565b613e61565b82525050565b6134ec81613ce4565b82525050565b6134fb81613ce4565b82525050565b600061350d8288612dfc565b60148201915061351d82876134cc565b60038201915061352d8286612dfc565b60148201915061353d82856134cc565b60038201915061354d8284612dfc565b6014820191508190509695505050505050565b600061356c8284612f5f565b915081905092915050565b600060208201905061358c6000830184612ded565b92915050565b60006040820190506135a76000830185612ded565b6135b46020830184612ded565b9392505050565b600060e0820190506135d0600083018a612ded565b81810360208301526135e28189612e13565b905081810360408301526135f68188612e71565b9050818103606083015261360a8187612e71565b90506136196080830186612ded565b81810360a083015261362b8185612f26565b905061363a60c08301846134ae565b98975050505050505050565b600060408201905061365b6000830185612ded565b61366860208301846134f2565b9392505050565b60006020820190506136846000830184612ede565b92915050565b600060208201905061369f6000830184612f90565b92915050565b60006020820190506136ba6000830184612f9f565b92915050565b60006020820190506136d56000830184612fae565b92915050565b60006020820190506136f06000830184612fbd565b92915050565b600060208201905081810360008301526137108184612fdb565b905092915050565b6000602082019050818103600083015261373181613014565b9050919050565b6000602082019050818103600083015261375181613037565b9050919050565b600060208201905081810360008301526137718161305a565b9050919050565b600060208201905081810360008301526137918161307d565b9050919050565b600060208201905081810360008301526137b1816130a0565b9050919050565b600060208201905081810360008301526137d1816130c3565b9050919050565b600060208201905081810360008301526137f1816130e6565b9050919050565b6000602082019050818103600083015261381181613109565b9050919050565b600060208201905081810360008301526138318161312c565b9050919050565b600060208201905081810360008301526138518161314f565b9050919050565b6000602082019050818103600083015261387181613172565b9050919050565b6000602082019050818103600083015261389181613195565b9050919050565b600060208201905081810360008301526138b1816131b8565b9050919050565b600060208201905081810360008301526138d1816131db565b9050919050565b600060208201905081810360008301526138f1816131fe565b9050919050565b6000602082019050818103600083015261391181613221565b9050919050565b6000602082019050818103600083015261393181613244565b9050919050565b600060208201905081810360008301526139528184613267565b905092915050565b60006101008201905061397060008301846132dd565b92915050565b60006101c08201905061398c600083018461337f565b92915050565b60006020820190506139a760008301846134f2565b92915050565b60006040820190506139c260008301856134f2565b81810360208301526139d48184612e13565b90509392505050565b600060a0820190506139f260008301886134f2565b6139ff6020830187612fcc565b8181036040830152613a118186612e13565b9050613a206060830185612ded565b613a2d60808301846134f2565b9695505050505050565b600060a082019050613a4c60008301886134f2565b613a5960208301876134f2565b8181036040830152613a6b8186612e13565b9050613a7a6060830185612ded565b613a8760808301846134f2565b9695505050505050565b6000613a9b613aac565b9050613aa78282613dc3565b919050565b6000604051905090565b600067ffffffffffffffff821115613ad157613ad0613ed1565b5b602082029050602081019050919050565b6000819050602082019050919050565b6000819050602082019050919050565b600081519050919050565b600081519050919050565b600081519050919050565b600081519050919050565b6000602082019050919050565b6000602082019050919050565b600082825260208201905092915050565b600082825260208201905092915050565b600082825260208201905092915050565b600082825260208201905092915050565b600081905092915050565b600082825260208201905092915050565b6000613bb382613ce4565b9150613bbe83613ce4565b9250827fffffffffffffffffffffffffffffffffffffffffffffffffffffffffffffffff03821115613bf357613bf2613e73565b5b828201905092915050565b6000613c0982613ce4565b9150613c1483613ce4565b925082613c2457613c23613ea2565b5b828204905092915050565b6000613c3a82613ce4565b9150613c4583613ce4565b9250817fffffffffffffffffffffffffffffffffffffffffffffffffffffffffffffffff0483118215151615613c7e57613c7d613e73565b5b828202905092915050565b6000613c9482613cb5565b9050919050565b60008115159050919050565b600061ffff82169050919050565b600073ffffffffffffffffffffffffffffffffffffffff82169050919050565b600062ffffff82169050919050565b6000819050919050565b6000613cf982613d00565b9050919050565b6000613d0b82613cb5565b9050919050565b6000613d1d82613d24565b9050919050565b6000613d2f82613cb5565b9050919050565b6000613d4182613d48565b9050919050565b6000613d5382613cb5565b9050919050565b6000613d6582613d6c565b9050919050565b6000613d7782613cb5565b9050919050565b6000613d8982613ce4565b9050919050565b60005b83811015613dae578082015181840152602081019050613d93565b83811115613dbd576000848401525b50505050565b613dcc82613f00565b810181811067ffffffffffffffff82111715613deb57613dea613ed1565b5b80604052505050565b6000613dff82613ce4565b91507fffffffffffffffffffffffffffffffffffffffffffffffffffffffffffffffff821415613e3257613e31613e73565b5b600182019050919050565b6000613e4882613e4f565b9050919050565b6000613e5a82613f1e565b9050919050565b6000613e6c82613f11565b9050919050565b7f4e487b7100000000000000000000000000000000000000000000000000000000600052601160045260246000fd5b7f4e487b7100000000000000000000000000000000000000000000000000000000600052601260045260246000fd5b7f4e487b7100000000000000000000000000000000000000000000000000000000600052604160045260246000fd5b6000601f19601f8301169050919050565b60008160e81b9050919050565b60008160601b9050919050565b7f5341000000000000000000000000000000000000000000000000000000000000600082015250565b7f506f6f6c206e6f7420666f756e64210000000000000000000000000000000000600082015250565b7f4f776e61626c653a206e6577206f776e657220697320746865207a65726f206160008201527f6464726573730000000000000000000000000000000000000000000000000000602082015250565b7f62616c616e6365206973206e6f74203e3d203830000000000000000000000000600082015250565b7f416464726573733a20696e73756666696369656e742062616c616e636520666f60008201527f722063616c6c0000000000000000000000000000000000000000000000000000602082015250565b7f62616c616e6365206973206e6f74203e3d203130300000000000000000000000600082015250565b7f617070726f7665206661696c6564000000000000000000000000000000000000600082015250565b7f62616c616e6365206973206e6f74203e3d203930000000000000000000000000600082015250565b7f62616c616e6365206973206e6f74203e3d203730000000000000000000000000600082015250565b7f4f776e61626c653a2063616c6c6572206973206e6f7420746865206f776e6572600082015250565b7f746f6b656e42616c616e6365206572726f722100000000000000000000000000600082015250565b7f4e6f7420656e6f75676820616d6f756e7420746f2072657475726e206c6f616e600082015250565b7f4e6f7420706f6f6c000000000000000000000000000000000000000000000000600082015250565b7f416464726573733a2063616c6c20746f206e6f6e2d636f6e7472616374000000600082015250565b7f5a65726f2062616c616e63650000000000000000000000000000000000000000600082015250565b7f5361666545524332303a204552433230206f7065726174696f6e20646964206e60008201527f6f74207375636365656400000000000000000000000000000000000000000000602082015250565b7f5265656e7472616e637947756172643a207265656e7472616e742063616c6c00600082015250565b61425f81613c89565b811461426a57600080fd5b50565b61427681613c9b565b811461428157600080fd5b50565b61428d81613cd5565b811461429857600080fd5b50565b6142a481613ce4565b81146142af57600080fd5b5056fea26469706673582212201a4f074007853ef93f11d7a6d1186f431e8cbf72281e806bedfa53efa018dfae64736f6c63430008040033",
  "devdoc": {
    "kind": "dev",
    "methods": {
      "owner()": {
        "details": "Returns the address of the current owner."
      },
      "renounceOwnership()": {
        "details": "Leaves the contract without owner. It will not be possible to call `onlyOwner` functions anymore. Can only be called by the current owner. NOTE: Renouncing ownership will leave the contract without an owner, thereby removing any functionality that is only available to the owner."
      },
      "transferOwnership(address)": {
        "details": "Transfers ownership of the contract to a new account (`newOwner`). Can only be called by the current owner."
      },
      "withdraw(address)": {
        "details": "Withdraw asset.",
        "params": {
          "_assetAddress": "Asset to be withdrawn."
        }
      }
    },
    "version": 1
  },
  "userdoc": {
    "kind": "user",
    "methods": {},
    "version": 1
  },
  "storageLayout": {
    "storage": [
      {
        "astId": 7,
        "contract": "contracts/AaveUniQuick.sol:AaveUniQuick",
        "label": "_owner",
        "offset": 0,
        "slot": "0",
        "type": "t_address"
      },
      {
        "astId": 115,
        "contract": "contracts/AaveUniQuick.sol:AaveUniQuick",
        "label": "_status",
        "offset": 0,
        "slot": "1",
        "type": "t_uint256"
      }
    ],
    "types": {
      "t_address": {
        "encoding": "inplace",
        "label": "address",
        "numberOfBytes": "20"
      },
      "t_uint256": {
        "encoding": "inplace",
        "label": "uint256",
        "numberOfBytes": "32"
      }
    }
  }
}