{
  "address": "0xd815E928fa3CE6d5A77eE3b74E1b995A1A09181f",
  "abi": [
    {
      "inputs": [
        {
          "internalType": "contract IPoolAddressesProvider",
          "name": "_aaveAddressProvider",
          "type": "address"
        },
        {
          "internalType": "address",
          "name": "_uniswapV3Router",
          "type": "address"
        },
        {
          "internalType": "address",
          "name": "_sushiswapRouterAddress",
          "type": "address"
        },
        {
          "internalType": "address",
          "name": "_sushiswapfactory",
          "type": "address"
        },
        {
          "internalType": "address",
          "name": "_quickswapV2RouterAddress",
          "type": "address"
        },
        {
          "internalType": "address",
          "name": "_quickswapfactory",
          "type": "address"
        }
      ],
      "stateMutability": "nonpayable",
      "type": "constructor"
    },
    {
      "anonymous": false,
      "inputs": [
        {
          "indexed": true,
          "internalType": "address",
          "name": "_borrowedAsset",
          "type": "address"
        },
        {
          "indexed": true,
          "internalType": "uint256",
          "name": "_amount",
          "type": "uint256"
        },
        {
          "indexed": false,
          "internalType": "uint256",
          "name": "_premium",
          "type": "uint256"
        }
      ],
      "name": "AaveBorrowDetails",
      "type": "event"
    },
    {
      "anonymous": false,
      "inputs": [
        {
          "indexed": true,
          "internalType": "address",
          "name": "_from",
          "type": "address"
        },
        {
          "indexed": true,
          "internalType": "address",
          "name": "_assetAddress",
          "type": "address"
        },
        {
          "indexed": false,
          "internalType": "uint256",
          "name": "amount",
          "type": "uint256"
        }
      ],
      "name": "LogWithdraw",
      "type": "event"
    },
    {
      "anonymous": false,
      "inputs": [
        {
          "indexed": true,
          "internalType": "address",
          "name": "previousOwner",
          "type": "address"
        },
        {
          "indexed": true,
          "internalType": "address",
          "name": "newOwner",
          "type": "address"
        }
      ],
      "name": "OwnershipTransferred",
      "type": "event"
    },
    {
      "inputs": [],
      "name": "ADDRESSES_PROVIDER",
      "outputs": [
        {
          "internalType": "contract IPoolAddressesProvider",
          "name": "",
          "type": "address"
        }
      ],
      "stateMutability": "view",
      "type": "function"
    },
    {
      "inputs": [],
      "name": "POOL",
      "outputs": [
        {
          "internalType": "contract IPool",
          "name": "",
          "type": "address"
        }
      ],
      "stateMutability": "view",
      "type": "function"
    },
    {
      "inputs": [
        {
          "internalType": "address[]",
          "name": "assets",
          "type": "address[]"
        },
        {
          "internalType": "uint256[]",
          "name": "amounts",
          "type": "uint256[]"
        },
        {
          "internalType": "uint256[]",
          "name": "premiums",
          "type": "uint256[]"
        },
        {
          "internalType": "address",
          "name": "",
          "type": "address"
        },
        {
          "internalType": "bytes",
          "name": "params",
          "type": "bytes"
        }
      ],
      "name": "executeOperation",
      "outputs": [
        {
          "internalType": "bool",
          "name": "",
          "type": "bool"
        }
      ],
      "stateMutability": "nonpayable",
      "type": "function"
    },
    {
      "inputs": [],
      "name": "owner",
      "outputs": [
        {
          "internalType": "address",
          "name": "",
          "type": "address"
        }
      ],
      "stateMutability": "view",
      "type": "function"
    },
    {
      "inputs": [],
      "name": "quickRouter",
      "outputs": [
        {
          "internalType": "contract IUniswapV2Router02",
          "name": "",
          "type": "address"
        }
      ],
      "stateMutability": "view",
      "type": "function"
    },
    {
      "inputs": [],
      "name": "renounceOwnership",
      "outputs": [],
      "stateMutability": "nonpayable",
      "type": "function"
    },
    {
      "inputs": [
        {
          "components": [
            {
              "internalType": "address",
              "name": "token0",
              "type": "address"
            },
            {
              "internalType": "address",
              "name": "token1",
              "type": "address"
            },
            {
              "internalType": "uint24",
              "name": "pool1Fee",
              "type": "uint24"
            },
            {
              "internalType": "uint256",
              "name": "amount0",
              "type": "uint256"
            },
            {
              "internalType": "uint24",
              "name": "pool2Fee",
              "type": "uint24"
            },
            {
              "internalType": "address",
              "name": "sharedAddress",
              "type": "address"
            },
            {
              "internalType": "bool",
              "name": "uniuniquick",
              "type": "bool"
            },
            {
              "internalType": "bool",
              "name": "uniunisushi",
              "type": "bool"
            },
            {
              "internalType": "bool",
              "name": "uniquick",
              "type": "bool"
            },
            {
              "internalType": "bool",
              "name": "unisushi",
              "type": "bool"
            },
            {
              "internalType": "bool",
              "name": "quickuni",
              "type": "bool"
            },
            {
              "internalType": "bool",
              "name": "quicksushi",
              "type": "bool"
            },
            {
              "internalType": "bool",
              "name": "sushiuni",
              "type": "bool"
            },
            {
              "internalType": "bool",
              "name": "sushiquick",
              "type": "bool"
            }
          ],
          "internalType": "struct AaveUniQuick.FlashParams",
          "name": "_data",
          "type": "tuple"
        }
      ],
      "name": "startTransaction",
      "outputs": [],
      "stateMutability": "nonpayable",
      "type": "function"
    },
    {
      "inputs": [],
      "name": "sushiRouter",
      "outputs": [
        {
          "internalType": "contract IUniswapV2Router02",
          "name": "",
          "type": "address"
        }
      ],
      "stateMutability": "view",
      "type": "function"
    },
    {
      "inputs": [
        {
          "internalType": "address",
          "name": "newOwner",
          "type": "address"
        }
      ],
      "name": "transferOwnership",
      "outputs": [],
      "stateMutability": "nonpayable",
      "type": "function"
    },
    {
      "inputs": [],
      "name": "uniswapV3Router",
      "outputs": [
        {
          "internalType": "contract ISwapRouter",
          "name": "",
          "type": "address"
        }
      ],
      "stateMutability": "view",
      "type": "function"
    },
    {
      "inputs": [
        {
          "internalType": "address",
          "name": "_assetAddress",
          "type": "address"
        }
      ],
      "name": "withdraw",
      "outputs": [],
      "stateMutability": "nonpayable",
      "type": "function"
    },
    {
      "stateMutability": "payable",
      "type": "receive"
    }
  ],
  "transactionHash": "0xda3562f939cdcb1ac03fa348bb1c7d95d16acd6a2239bb12ce8028d24dd3fc15",
  "args": [
    "0xa97684ead0e402dC232d5A977953DF7ECBaB3CDb",
    "0xE592427A0AEce92De3Edee1F18E0157C05861564",
    "0x1b02dA8Cb0d097eB8D57A175b88c7D8b47997506",
    "0xc35DADB65012eC5796536bD9864eD8773aBc74C4",
    "0xa5E0829CaCEd8fFDD4De3c43696c57F7D7A678ff",
    "0x5757371414417b8C6CAad45bAeF941aBc7d3Ab32"
  ],
  "numDeployments": 36,
  "solcInputHash": "bb550d4dddc4d041addd5354f4dd96d0",
  "bytecode": "0x6101606040523480156200001257600080fd5b50604051620043c9380380620043c9833981810160405281019062000038919062000398565b858073ffffffffffffffffffffffffffffffffffffffff1660808173ffffffffffffffffffffffffffffffffffffffff1660601b815250508073ffffffffffffffffffffffffffffffffffffffff1663026b1d5f6040518163ffffffff1660e01b815260040160206040518083038186803b158015620000b757600080fd5b505afa158015620000cc573d6000803e3d6000fd5b505050506040513d601f19601f82011682018060405250810190620000f291906200036c565b73ffffffffffffffffffffffffffffffffffffffff1660a08173ffffffffffffffffffffffffffffffffffffffff1660601b8152505050620001496200013d6200027260201b60201c565b6200027a60201b60201c565b600180819055508473ffffffffffffffffffffffffffffffffffffffff1660e08173ffffffffffffffffffffffffffffffffffffffff1660601b815250508173ffffffffffffffffffffffffffffffffffffffff1660c08173ffffffffffffffffffffffffffffffffffffffff1660601b815250508373ffffffffffffffffffffffffffffffffffffffff166101008173ffffffffffffffffffffffffffffffffffffffff1660601b815250508273ffffffffffffffffffffffffffffffffffffffff166101208173ffffffffffffffffffffffffffffffffffffffff1660601b815250508073ffffffffffffffffffffffffffffffffffffffff166101408173ffffffffffffffffffffffffffffffffffffffff1660601b81525050505050505050620004aa565b600033905090565b60008060009054906101000a900473ffffffffffffffffffffffffffffffffffffffff169050816000806101000a81548173ffffffffffffffffffffffffffffffffffffffff021916908373ffffffffffffffffffffffffffffffffffffffff1602179055508173ffffffffffffffffffffffffffffffffffffffff168173ffffffffffffffffffffffffffffffffffffffff167f8be0079c531659141344cd1fd0a4f28419497f9722a3daafe3b4186f6b6457e060405160405180910390a35050565b6000815190506200034f8162000476565b92915050565b600081519050620003668162000490565b92915050565b6000602082840312156200037f57600080fd5b60006200038f848285016200033e565b91505092915050565b60008060008060008060c08789031215620003b257600080fd5b6000620003c289828a0162000355565b9650506020620003d589828a016200033e565b9550506040620003e889828a016200033e565b9450506060620003fb89828a016200033e565b93505060806200040e89828a016200033e565b92505060a06200042189828a016200033e565b9150509295509295509295565b60006200043b8262000456565b9050919050565b60006200044f826200042e565b9050919050565b600073ffffffffffffffffffffffffffffffffffffffff82169050919050565b62000481816200042e565b81146200048d57600080fd5b50565b6200049b8162000442565b8114620004a757600080fd5b50565b60805160601c60a05160601c60c05160601c60e05160601c6101005160601c6101205160601c6101405160601c613e5762000572600039600050506000611a0e01526000818161055a01528181611b4701528181611be20152611d810152600081816102a301528181611544015281816115e201528181611e9d0152611f6f01526000818161062a015281816116bc0152818161175701526118f60152600081816106060152818161075501528181610a5e01526113d70152600061027f0152613e576000f3fe6080604052600436106100a05760003560e01c80637535d246116100645780637535d2461461016d5780638d252c62146101985780638da5cb5b146101c3578063920f5c84146101ee578063f2fde38b1461022b578063fa17a4b214610254576100a7565b80630542975c146100ac5780632c76d7a6146100d757806351cff8d9146101025780636d13582c1461012b578063715018a614610156576100a7565b366100a757005b600080fd5b3480156100b857600080fd5b506100c161027d565b6040516100ce919061332e565b60405180910390f35b3480156100e357600080fd5b506100ec6102a1565b6040516100f99190613364565b60405180910390f35b34801561010e57600080fd5b50610129600480360381019061012491906128c4565b6102c5565b005b34801561013757600080fd5b50610140610558565b60405161014d919061337f565b60405180910390f35b34801561016257600080fd5b5061016b61057c565b005b34801561017957600080fd5b50610182610604565b60405161018f9190613349565b60405180910390f35b3480156101a457600080fd5b506101ad610628565b6040516101ba919061337f565b60405180910390f35b3480156101cf57600080fd5b506101d861064c565b6040516101e5919061321b565b60405180910390f35b3480156101fa57600080fd5b5061021560048036038101906102109190612916565b610675565b6040516102229190613313565b60405180910390f35b34801561023757600080fd5b50610252600480360381019061024d91906128c4565b610b43565b005b34801561026057600080fd5b5061027b60048036038101906102769190612a68565b610c3b565b005b7f000000000000000000000000000000000000000000000000000000000000000081565b7f000000000000000000000000000000000000000000000000000000000000000081565b6102cd610ea4565b73ffffffffffffffffffffffffffffffffffffffff166102eb61064c565b73ffffffffffffffffffffffffffffffffffffffff1614610341576040517f08c379a00000000000000000000000000000000000000000000000000000000081526004016103389061347c565b60405180910390fd5b60026001541415610387576040517f08c379a000000000000000000000000000000000000000000000000000000000815260040161037e9061355c565b60405180910390fd5b600260018190555060008073ffffffffffffffffffffffffffffffffffffffff168273ffffffffffffffffffffffffffffffffffffffff1614156104315760003090508073ffffffffffffffffffffffffffffffffffffffff163191503373ffffffffffffffffffffffffffffffffffffffff166108fc839081150290604051600060405180830381858888f1935050505015801561042a573d6000803e3d6000fd5b50506104e8565b8173ffffffffffffffffffffffffffffffffffffffff166370a08231306040518263ffffffff1660e01b815260040161046a919061321b565b60206040518083038186803b15801561048257600080fd5b505afa158015610496573d6000803e3d6000fd5b505050506040513d601f19601f820116820180604052508101906104ba9190612a92565b90506104e733828473ffffffffffffffffffffffffffffffffffffffff16610eac9092919063ffffffff16565b5b8173ffffffffffffffffffffffffffffffffffffffff163373ffffffffffffffffffffffffffffffffffffffff167f9207361cc2a04b9c7a06691df1eb87c6a63957ae88bf01d0d18c81e3d12720998360405161054591906135d6565b60405180910390a3506001808190555050565b7f000000000000000000000000000000000000000000000000000000000000000081565b610584610ea4565b73ffffffffffffffffffffffffffffffffffffffff166105a261064c565b73ffffffffffffffffffffffffffffffffffffffff16146105f8576040517f08c379a00000000000000000000000000000000000000000000000000000000081526004016105ef9061347c565b60405180910390fd5b6106026000610f32565b565b7f000000000000000000000000000000000000000000000000000000000000000081565b7f000000000000000000000000000000000000000000000000000000000000000081565b60008060009054906101000a900473ffffffffffffffffffffffffffffffffffffffff16905090565b6000808a8a60008181106106b2577f4e487b7100000000000000000000000000000000000000000000000000000000600052603260045260246000fd5b90506020020160208101906106c791906128c4565b9050600089896000818110610705577f4e487b7100000000000000000000000000000000000000000000000000000000600052603260045260246000fd5b90506020020135905060008888600081811061074a577f4e487b7100000000000000000000000000000000000000000000000000000000600052603260045260246000fd5b9050602002013590507f000000000000000000000000000000000000000000000000000000000000000073ffffffffffffffffffffffffffffffffffffffff163373ffffffffffffffffffffffffffffffffffffffff16146107e1576040517f08c379a00000000000000000000000000000000000000000000000000000000081526004016107d8906134dc565b60405180910390fd5b60008373ffffffffffffffffffffffffffffffffffffffff166370a08231306040518263ffffffff1660e01b815260040161081c919061321b565b60206040518083038186803b15801561083457600080fd5b505afa158015610848573d6000803e3d6000fd5b505050506040513d601f19601f8201168201806040525081019061086c9190612a92565b9050600083116108b1576040517f08c379a00000000000000000000000000000000000000000000000000000000081526004016108a89061351c565b60405180910390fd5b8281146108f3576040517f08c379a00000000000000000000000000000000000000000000000000000000081526004016108ea9061349c565b60405180910390fd5b828473ffffffffffffffffffffffffffffffffffffffff167f2e30dc796dffed39db84c7dd3248c08d1852da65e0e3da58b6cde0d7384413378460405161093a91906135d6565b60405180910390a3600087878101906109539190612a68565b905061095e81610ff6565b600061097384866112d990919063ffffffff16565b9050808673ffffffffffffffffffffffffffffffffffffffff166370a08231306040518263ffffffff1660e01b81526004016109af919061321b565b60206040518083038186803b1580156109c757600080fd5b505afa1580156109db573d6000803e3d6000fd5b505050506040513d601f19601f820116820180604052508101906109ff9190612a92565b1015610a40576040517f08c379a0000000000000000000000000000000000000000000000000000000008152600401610a37906134bc565b60405180910390fd5b8573ffffffffffffffffffffffffffffffffffffffff1663095ea7b37f0000000000000000000000000000000000000000000000000000000000000000836040518363ffffffff1660e01b8152600401610a9b9291906132ea565b602060405180830381600087803b158015610ab557600080fd5b505af1158015610ac9573d6000803e3d6000fd5b505050506040513d601f19601f82011682018060405250810190610aed9190612a3f565b610b2c576040517f08c379a0000000000000000000000000000000000000000000000000000000008152600401610b239061345c565b60405180910390fd5b600196505050505050509998505050505050505050565b610b4b610ea4565b73ffffffffffffffffffffffffffffffffffffffff16610b6961064c565b73ffffffffffffffffffffffffffffffffffffffff1614610bbf576040517f08c379a0000000000000000000000000000000000000000000000000000000008152600401610bb69061347c565b60405180910390fd5b600073ffffffffffffffffffffffffffffffffffffffff168173ffffffffffffffffffffffffffffffffffffffff161415610c2f576040517f08c379a0000000000000000000000000000000000000000000000000000000008152600401610c26906133fc565b60405180910390fd5b610c3881610f32565b50565b610c43610ea4565b73ffffffffffffffffffffffffffffffffffffffff16610c6161064c565b73ffffffffffffffffffffffffffffffffffffffff1614610cb7576040517f08c379a0000000000000000000000000000000000000000000000000000000008152600401610cae9061347c565b60405180910390fd5b600081600001519050600082606001519050600083604051602001610cdc91906135ba565b60405160208183030381529060405290506000600167ffffffffffffffff811115610d30577f4e487b7100000000000000000000000000000000000000000000000000000000600052604160045260246000fd5b604051908082528060200260200182016040528015610d5e5781602001602082028036833780820191505090505b5090508381600081518110610d9c577f4e487b7100000000000000000000000000000000000000000000000000000000600052603260045260246000fd5b602002602001019073ffffffffffffffffffffffffffffffffffffffff16908173ffffffffffffffffffffffffffffffffffffffff16815250506000600167ffffffffffffffff811115610e19577f4e487b7100000000000000000000000000000000000000000000000000000000600052604160045260246000fd5b604051908082528060200260200182016040528015610e475781602001602082028036833780820191505090505b5090508381600081518110610e85577f4e487b7100000000000000000000000000000000000000000000000000000000600052603260045260246000fd5b602002602001018181525050610e9c8282856112ef565b505050505050565b600033905090565b610f2d8363a9059cbb60e01b8484604051602401610ecb9291906132ea565b604051602081830303815290604052907bffffffffffffffffffffffffffffffffffffffffffffffffffffffff19166020820180517bffffffffffffffffffffffffffffffffffffffffffffffffffffffff8381831617835250505050611475565b505050565b60008060009054906101000a900473ffffffffffffffffffffffffffffffffffffffff169050816000806101000a81548173ffffffffffffffffffffffffffffffffffffffff021916908373ffffffffffffffffffffffffffffffffffffffff1602179055508173ffffffffffffffffffffffffffffffffffffffff168173ffffffffffffffffffffffffffffffffffffffff167f8be0079c531659141344cd1fd0a4f28419497f9722a3daafe3b4186f6b6457e060405160405180910390a35050565b60008160000151905060008260200151905060008360400151905060008460a00151905060008560800151905060008573ffffffffffffffffffffffffffffffffffffffff166370a08231306040518263ffffffff1660e01b815260040161105e919061321b565b60206040518083038186803b15801561107657600080fd5b505afa15801561108a573d6000803e3d6000fd5b505050506040513d601f19601f820116820180604052508101906110ae9190612a92565b9050600081116110f3576040517f08c379a00000000000000000000000000000000000000000000000000000000081526004016110ea9061343c565b60405180910390fd5b600080600115158960c00151151514156111595761111583898888888c61153c565b90508673ffffffffffffffffffffffffffffffffffffffff168873ffffffffffffffffffffffffffffffffffffffff16146111585761115581888a61169c565b91505b5b600115158960e00151151514156111bc5761117883898888888c61153c565b90508673ffffffffffffffffffffffffffffffffffffffff168873ffffffffffffffffffffffffffffffffffffffff16146111bb576111b887828a611a09565b91505b5b60011515896101000151151514156111ea576111da83898989611e95565b90506111e781888a61169c565b91505b60011515896101200151151514156112185761120883898989611e95565b905061121587828a611a09565b91505b60011515896101400151151514156112465761123583898961169c565b905061124381888a89611e95565b91505b60011515896101600151151514156112735761126383898961169c565b905061127087828a611a09565b91505b60011515896101800151151514156112a157611290888489611a09565b905061129e81888a89611e95565b91505b60011515896101a00151151514156112ce576112be888489611a09565b90506112cb81888a61169c565b91505b505050505050505050565b600081836112e79190613792565b905092915050565b60003090506000309050600080865167ffffffffffffffff81111561133d577f4e487b7100000000000000000000000000000000000000000000000000000000600052604160045260246000fd5b60405190808252806020026020018201604052801561136b5781602001602082028036833780820191505090505b50905060005b87518110156113d45760008282815181106113b5577f4e487b7100000000000000000000000000000000000000000000000000000000600052603260045260246000fd5b60200260200101818152505080806113cc906139de565b915050611371565b507f000000000000000000000000000000000000000000000000000000000000000073ffffffffffffffffffffffffffffffffffffffff1663ab9c4b5d85898985888b896040518863ffffffff1660e01b815260040161143a979695949392919061325f565b600060405180830381600087803b15801561145457600080fd5b505af1158015611468573d6000803e3d6000fd5b5050505050505050505050565b60006114d7826040518060400160405280602081526020017f5361666545524332303a206c6f772d6c6576656c2063616c6c206661696c65648152508573ffffffffffffffffffffffffffffffffffffffff166120279092919063ffffffff16565b905060008151111561153757808060200190518101906114f79190612a3f565b611536576040517f08c379a000000000000000000000000000000000000000000000000000000000815260040161152d9061353c565b60405180910390fd5b5b505050565b6000611569867f00000000000000000000000000000000000000000000000000000000000000008961203f565b60006040518060a00160405280888888888860405160200161158f9594939291906131a5565b60405160208183030381529060405281526020013073ffffffffffffffffffffffffffffffffffffffff16815260200160c8426115cc9190613792565b81526020018981526020016000815250905060007f000000000000000000000000000000000000000000000000000000000000000073ffffffffffffffffffffffffffffffffffffffff1663c04b8d59836040518263ffffffff1660e01b8152600401611639919061357c565b602060405180830381600087803b15801561165357600080fd5b505af1158015611667573d6000803e3d6000fd5b505050506040513d601f19601f8201168201806040525081019061168b9190612a92565b905080925050509695505050505050565b60008273ffffffffffffffffffffffffffffffffffffffff1663095ea7b37f0000000000000000000000000000000000000000000000000000000000000000866040518363ffffffff1660e01b81526004016116f99291906132ea565b602060405180830381600087803b15801561171357600080fd5b505af1158015611727573d6000803e3d6000fd5b505050506040513d601f19601f8201168201806040525081019061174b9190612a3f565b5060006064605f61177e7f000000000000000000000000000000000000000000000000000000000000000087878a612194565b6117889190613819565b61179291906137e8565b90506000600267ffffffffffffffff8111156117d7577f4e487b7100000000000000000000000000000000000000000000000000000000600052604160045260246000fd5b6040519080825280602002602001820160405280156118055781602001602082028036833780820191505090505b5090508481600081518110611843577f4e487b7100000000000000000000000000000000000000000000000000000000600052603260045260246000fd5b602002602001019073ffffffffffffffffffffffffffffffffffffffff16908173ffffffffffffffffffffffffffffffffffffffff168152505083816001815181106118b8577f4e487b7100000000000000000000000000000000000000000000000000000000600052603260045260246000fd5b602002602001019073ffffffffffffffffffffffffffffffffffffffff16908173ffffffffffffffffffffffffffffffffffffffff168152505060007f000000000000000000000000000000000000000000000000000000000000000073ffffffffffffffffffffffffffffffffffffffff166338ed1739886000853060c8426119429190613792565b6040518663ffffffff1660e01b8152600401611962959493929190613621565b600060405180830381600087803b15801561197c57600080fd5b505af1158015611990573d6000803e3d6000fd5b505050506040513d6000823e3d601f19601f820116820180604052508101906119b991906129fe565b6001815181106119f2577f4e487b7100000000000000000000000000000000000000000000000000000000600052603260045260246000fd5b602002602001015190508093505050509392505050565b6000807f000000000000000000000000000000000000000000000000000000000000000073ffffffffffffffffffffffffffffffffffffffff1663e6a4390586856040518363ffffffff1660e01b8152600401611a67929190613236565b60206040518083038186803b158015611a7f57600080fd5b505afa158015611a93573d6000803e3d6000fd5b505050506040513d601f19601f82011682018060405250810190611ab791906128ed565b9050600073ffffffffffffffffffffffffffffffffffffffff168173ffffffffffffffffffffffffffffffffffffffff161415611b29576040517f08c379a0000000000000000000000000000000000000000000000000000000008152600401611b20906133dc565b60405180910390fd5b8473ffffffffffffffffffffffffffffffffffffffff1663095ea7b37f0000000000000000000000000000000000000000000000000000000000000000866040518363ffffffff1660e01b8152600401611b849291906132ea565b602060405180830381600087803b158015611b9e57600080fd5b505af1158015611bb2573d6000803e3d6000fd5b505050506040513d601f19601f82011682018060405250810190611bd69190612a3f565b5060006064605f611c097f000000000000000000000000000000000000000000000000000000000000000089888a612194565b611c139190613819565b611c1d91906137e8565b90506000600267ffffffffffffffff811115611c62577f4e487b7100000000000000000000000000000000000000000000000000000000600052604160045260246000fd5b604051908082528060200260200182016040528015611c905781602001602082028036833780820191505090505b5090508681600081518110611cce577f4e487b7100000000000000000000000000000000000000000000000000000000600052603260045260246000fd5b602002602001019073ffffffffffffffffffffffffffffffffffffffff16908173ffffffffffffffffffffffffffffffffffffffff16815250508481600181518110611d43577f4e487b7100000000000000000000000000000000000000000000000000000000600052603260045260246000fd5b602002602001019073ffffffffffffffffffffffffffffffffffffffff16908173ffffffffffffffffffffffffffffffffffffffff168152505060007f000000000000000000000000000000000000000000000000000000000000000073ffffffffffffffffffffffffffffffffffffffff166338ed1739886000853060c842611dcd9190613792565b6040518663ffffffff1660e01b8152600401611ded959493929190613621565b600060405180830381600087803b158015611e0757600080fd5b505af1158015611e1b573d6000803e3d6000fd5b505050506040513d6000823e3d601f19601f82011682018060405250810190611e4491906129fe565b600181518110611e7d577f4e487b7100000000000000000000000000000000000000000000000000000000600052603260045260246000fd5b60200260200101519050809450505050509392505050565b6000611ec2847f00000000000000000000000000000000000000000000000000000000000000008761203f565b60006040518061010001604052808673ffffffffffffffffffffffffffffffffffffffff1681526020018573ffffffffffffffffffffffffffffffffffffffff1681526020018462ffffff1681526020013073ffffffffffffffffffffffffffffffffffffffff16815260200160c842611f3c9190613792565b815260200187815260200160008152602001600073ffffffffffffffffffffffffffffffffffffffff16815250905060007f000000000000000000000000000000000000000000000000000000000000000073ffffffffffffffffffffffffffffffffffffffff1663414bf389836040518263ffffffff1660e01b8152600401611fc6919061359e565b602060405180830381600087803b158015611fe057600080fd5b505af1158015611ff4573d6000803e3d6000fd5b505050506040513d601f19601f820116820180604052508101906120189190612a92565b90508092505050949350505050565b606061203684846000856123d5565b90509392505050565b6000808473ffffffffffffffffffffffffffffffffffffffff1663095ea7b360e01b85856040516024016120749291906132ea565b604051602081830303815290604052907bffffffffffffffffffffffffffffffffffffffffffffffffffffffff19166020820180517bffffffffffffffffffffffffffffffffffffffffffffffffffffffff83818316178352505050506040516120de9190613204565b6000604051808303816000865af19150503d806000811461211b576040519150601f19603f3d011682016040523d82523d6000602084013e612120565b606091505b509150915081801561214e575060008151148061214d57508080602001905181019061214c9190612a3f565b5b5b61218d576040517f08c379a0000000000000000000000000000000000000000000000000000000008152600401612184906133bc565b60405180910390fd5b5050505050565b600080600267ffffffffffffffff8111156121d8577f4e487b7100000000000000000000000000000000000000000000000000000000600052604160045260246000fd5b6040519080825280602002602001820160405280156122065781602001602082028036833780820191505090505b5090508481600081518110612244577f4e487b7100000000000000000000000000000000000000000000000000000000600052603260045260246000fd5b602002602001019073ffffffffffffffffffffffffffffffffffffffff16908173ffffffffffffffffffffffffffffffffffffffff168152505083816001815181106122b9577f4e487b7100000000000000000000000000000000000000000000000000000000600052603260045260246000fd5b602002602001019073ffffffffffffffffffffffffffffffffffffffff16908173ffffffffffffffffffffffffffffffffffffffff168152505060008673ffffffffffffffffffffffffffffffffffffffff1663d06ca61f85846040518363ffffffff1660e01b81526004016123309291906135f1565b60006040518083038186803b15801561234857600080fd5b505afa15801561235c573d6000803e3d6000fd5b505050506040513d6000823e3d601f19601f8201168201806040525081019061238591906129fe565b6001815181106123be577f4e487b7100000000000000000000000000000000000000000000000000000000600052603260045260246000fd5b602002602001015190508092505050949350505050565b60608247101561241a576040517f08c379a00000000000000000000000000000000000000000000000000000000081526004016124119061341c565b60405180910390fd5b612423856124e9565b612462576040517f08c379a0000000000000000000000000000000000000000000000000000000008152600401612459906134fc565b60405180910390fd5b6000808673ffffffffffffffffffffffffffffffffffffffff16858760405161248b9190613204565b60006040518083038185875af1925050503d80600081146124c8576040519150601f19603f3d011682016040523d82523d6000602084013e6124cd565b606091505b50915091506124dd82828661250c565b92505050949350505050565b6000808273ffffffffffffffffffffffffffffffffffffffff163b119050919050565b6060831561251c5782905061256c565b60008351111561252f5782518084602001fd5b816040517f08c379a0000000000000000000000000000000000000000000000000000000008152600401612563919061339a565b60405180910390fd5b9392505050565b6000612586612581846136a0565b61367b565b905080838252602082019050828560208602820111156125a557600080fd5b60005b858110156125d557816125bb88826128af565b8452602084019350602083019250506001810190506125a8565b5050509392505050565b6000813590506125ee81613dc5565b92915050565b60008151905061260381613dc5565b92915050565b60008083601f84011261261b57600080fd5b8235905067ffffffffffffffff81111561263457600080fd5b60208301915083602082028301111561264c57600080fd5b9250929050565b60008083601f84011261266557600080fd5b8235905067ffffffffffffffff81111561267e57600080fd5b60208301915083602082028301111561269657600080fd5b9250929050565b600082601f8301126126ae57600080fd5b81516126be848260208601612573565b91505092915050565b6000813590506126d681613ddc565b92915050565b6000815190506126eb81613ddc565b92915050565b60008083601f84011261270357600080fd5b8235905067ffffffffffffffff81111561271c57600080fd5b60208301915083600182028301111561273457600080fd5b9250929050565b60006101c0828403121561274e57600080fd5b6127596101c061367b565b90506000612769848285016125df565b600083015250602061277d848285016125df565b602083015250604061279184828501612885565b60408301525060606127a58482850161289a565b60608301525060806127b984828501612885565b60808301525060a06127cd848285016125df565b60a08301525060c06127e1848285016126c7565b60c08301525060e06127f5848285016126c7565b60e08301525061010061280a848285016126c7565b61010083015250610120612820848285016126c7565b61012083015250610140612836848285016126c7565b6101408301525061016061284c848285016126c7565b61016083015250610180612862848285016126c7565b610180830152506101a0612878848285016126c7565b6101a08301525092915050565b60008135905061289481613df3565b92915050565b6000813590506128a981613e0a565b92915050565b6000815190506128be81613e0a565b92915050565b6000602082840312156128d657600080fd5b60006128e4848285016125df565b91505092915050565b6000602082840312156128ff57600080fd5b600061290d848285016125f4565b91505092915050565b600080600080600080600080600060a08a8c03121561293457600080fd5b60008a013567ffffffffffffffff81111561294e57600080fd5b61295a8c828d01612609565b995099505060208a013567ffffffffffffffff81111561297957600080fd5b6129858c828d01612653565b975097505060408a013567ffffffffffffffff8111156129a457600080fd5b6129b08c828d01612653565b955095505060606129c38c828d016125df565b93505060808a013567ffffffffffffffff8111156129e057600080fd5b6129ec8c828d016126f1565b92509250509295985092959850929598565b600060208284031215612a1057600080fd5b600082015167ffffffffffffffff811115612a2a57600080fd5b612a368482850161269d565b91505092915050565b600060208284031215612a5157600080fd5b6000612a5f848285016126dc565b91505092915050565b60006101c08284031215612a7b57600080fd5b6000612a898482850161273b565b91505092915050565b600060208284031215612aa457600080fd5b6000612ab2848285016128af565b91505092915050565b6000612ac78383612aeb565b60208301905092915050565b6000612adf8383613187565b60208301905092915050565b612af481613873565b82525050565b612b0381613873565b82525050565b612b1a612b1582613873565b613a27565b82525050565b6000612b2b826136ec565b612b358185613732565b9350612b40836136cc565b8060005b83811015612b71578151612b588882612abb565b9750612b6383613718565b925050600181019050612b44565b5085935050505092915050565b6000612b89826136f7565b612b938185613743565b9350612b9e836136dc565b8060005b83811015612bcf578151612bb68882612ad3565b9750612bc183613725565b925050600181019050612ba2565b5085935050505092915050565b612be581613885565b82525050565b612bf481613885565b82525050565b6000612c0582613702565b612c0f8185613754565b9350612c1f81856020860161397a565b612c2881613aea565b840191505092915050565b6000612c3e82613702565b612c488185613765565b9350612c5881856020860161397a565b612c6181613aea565b840191505092915050565b6000612c7782613702565b612c818185613776565b9350612c9181856020860161397a565b80840191505092915050565b612ca6816138d8565b82525050565b612cb5816138fc565b82525050565b612cc481613920565b82525050565b612cd381613944565b82525050565b612ce281613968565b82525050565b6000612cf38261370d565b612cfd8185613781565b9350612d0d81856020860161397a565b612d1681613aea565b840191505092915050565b6000612d2e600283613781565b9150612d3982613b15565b602082019050919050565b6000612d51600f83613781565b9150612d5c82613b3e565b602082019050919050565b6000612d74602683613781565b9150612d7f82613b67565b604082019050919050565b6000612d97602683613781565b9150612da282613bb6565b604082019050919050565b6000612dba601683613781565b9150612dc582613c05565b602082019050919050565b6000612ddd600e83613781565b9150612de882613c2e565b602082019050919050565b6000612e00602083613781565b9150612e0b82613c57565b602082019050919050565b6000612e23601383613781565b9150612e2e82613c80565b602082019050919050565b6000612e46602083613781565b9150612e5182613ca9565b602082019050919050565b6000612e69600883613781565b9150612e7482613cd2565b602082019050919050565b6000612e8c601d83613781565b9150612e9782613cfb565b602082019050919050565b6000612eaf600c83613781565b9150612eba82613d24565b602082019050919050565b6000612ed2602a83613781565b9150612edd82613d4d565b604082019050919050565b6000612ef5601f83613781565b9150612f0082613d9c565b602082019050919050565b600060a0830160008301518482036000860152612f288282612bfa565b9150506020830151612f3d6020860182612aeb565b506040830151612f506040860182613187565b506060830151612f636060860182613187565b506080830151612f766080860182613187565b508091505092915050565b61010082016000820151612f986000850182612aeb565b506020820151612fab6020850182612aeb565b506040820151612fbe6040850182613161565b506060820151612fd16060850182612aeb565b506080820151612fe46080850182613187565b5060a0820151612ff760a0850182613187565b5060c082015161300a60c0850182613187565b5060e082015161301d60e0850182613143565b50505050565b6101c08201600082015161303a6000850182612aeb565b50602082015161304d6020850182612aeb565b5060408201516130606040850182613161565b5060608201516130736060850182613187565b5060808201516130866080850182613161565b5060a082015161309960a0850182612aeb565b5060c08201516130ac60c0850182612bdc565b5060e08201516130bf60e0850182612bdc565b506101008201516130d4610100850182612bdc565b506101208201516130e9610120850182612bdc565b506101408201516130fe610140850182612bdc565b50610160820151613113610160850182612bdc565b50610180820151613128610180850182612bdc565b506101a082015161313d6101a0850182612bdc565b50505050565b61314c8161389f565b82525050565b61315b81613891565b82525050565b61316a816138bf565b82525050565b61318161317c826138bf565b613a4b565b82525050565b613190816138ce565b82525050565b61319f816138ce565b82525050565b60006131b18288612b09565b6014820191506131c18287613170565b6003820191506131d18286612b09565b6014820191506131e18285613170565b6003820191506131f18284612b09565b6014820191508190509695505050505050565b60006132108284612c6c565b915081905092915050565b60006020820190506132306000830184612afa565b92915050565b600060408201905061324b6000830185612afa565b6132586020830184612afa565b9392505050565b600060e082019050613274600083018a612afa565b81810360208301526132868189612b20565b9050818103604083015261329a8188612b7e565b905081810360608301526132ae8187612b7e565b90506132bd6080830186612afa565b81810360a08301526132cf8185612c33565b90506132de60c0830184613152565b98975050505050505050565b60006040820190506132ff6000830185612afa565b61330c6020830184613196565b9392505050565b60006020820190506133286000830184612beb565b92915050565b60006020820190506133436000830184612c9d565b92915050565b600060208201905061335e6000830184612cac565b92915050565b60006020820190506133796000830184612cbb565b92915050565b60006020820190506133946000830184612cca565b92915050565b600060208201905081810360008301526133b48184612ce8565b905092915050565b600060208201905081810360008301526133d581612d21565b9050919050565b600060208201905081810360008301526133f581612d44565b9050919050565b6000602082019050818103600083015261341581612d67565b9050919050565b6000602082019050818103600083015261343581612d8a565b9050919050565b6000602082019050818103600083015261345581612dad565b9050919050565b6000602082019050818103600083015261347581612dd0565b9050919050565b6000602082019050818103600083015261349581612df3565b9050919050565b600060208201905081810360008301526134b581612e16565b9050919050565b600060208201905081810360008301526134d581612e39565b9050919050565b600060208201905081810360008301526134f581612e5c565b9050919050565b6000602082019050818103600083015261351581612e7f565b9050919050565b6000602082019050818103600083015261353581612ea2565b9050919050565b6000602082019050818103600083015261355581612ec5565b9050919050565b6000602082019050818103600083015261357581612ee8565b9050919050565b600060208201905081810360008301526135968184612f0b565b905092915050565b6000610100820190506135b46000830184612f81565b92915050565b60006101c0820190506135d06000830184613023565b92915050565b60006020820190506135eb6000830184613196565b92915050565b60006040820190506136066000830185613196565b81810360208301526136188184612b20565b90509392505050565b600060a0820190506136366000830188613196565b6136436020830187612cd9565b81810360408301526136558186612b20565b90506136646060830185612afa565b6136716080830184613196565b9695505050505050565b6000613685613696565b905061369182826139ad565b919050565b6000604051905090565b600067ffffffffffffffff8211156136bb576136ba613abb565b5b602082029050602081019050919050565b6000819050602082019050919050565b6000819050602082019050919050565b600081519050919050565b600081519050919050565b600081519050919050565b600081519050919050565b6000602082019050919050565b6000602082019050919050565b600082825260208201905092915050565b600082825260208201905092915050565b600082825260208201905092915050565b600082825260208201905092915050565b600081905092915050565b600082825260208201905092915050565b600061379d826138ce565b91506137a8836138ce565b9250827fffffffffffffffffffffffffffffffffffffffffffffffffffffffffffffffff038211156137dd576137dc613a5d565b5b828201905092915050565b60006137f3826138ce565b91506137fe836138ce565b92508261380e5761380d613a8c565b5b828204905092915050565b6000613824826138ce565b915061382f836138ce565b9250817fffffffffffffffffffffffffffffffffffffffffffffffffffffffffffffffff048311821515161561386857613867613a5d565b5b828202905092915050565b600061387e8261389f565b9050919050565b60008115159050919050565b600061ffff82169050919050565b600073ffffffffffffffffffffffffffffffffffffffff82169050919050565b600062ffffff82169050919050565b6000819050919050565b60006138e3826138ea565b9050919050565b60006138f58261389f565b9050919050565b60006139078261390e565b9050919050565b60006139198261389f565b9050919050565b600061392b82613932565b9050919050565b600061393d8261389f565b9050919050565b600061394f82613956565b9050919050565b60006139618261389f565b9050919050565b6000613973826138ce565b9050919050565b60005b8381101561399857808201518184015260208101905061397d565b838111156139a7576000848401525b50505050565b6139b682613aea565b810181811067ffffffffffffffff821117156139d5576139d4613abb565b5b80604052505050565b60006139e9826138ce565b91507fffffffffffffffffffffffffffffffffffffffffffffffffffffffffffffffff821415613a1c57613a1b613a5d565b5b600182019050919050565b6000613a3282613a39565b9050919050565b6000613a4482613b08565b9050919050565b6000613a5682613afb565b9050919050565b7f4e487b7100000000000000000000000000000000000000000000000000000000600052601160045260246000fd5b7f4e487b7100000000000000000000000000000000000000000000000000000000600052601260045260246000fd5b7f4e487b7100000000000000000000000000000000000000000000000000000000600052604160045260246000fd5b6000601f19601f8301169050919050565b60008160e81b9050919050565b60008160601b9050919050565b7f5341000000000000000000000000000000000000000000000000000000000000600082015250565b7f506f6f6c206e6f7420666f756e64210000000000000000000000000000000000600082015250565b7f4f776e61626c653a206e6577206f776e657220697320746865207a65726f206160008201527f6464726573730000000000000000000000000000000000000000000000000000602082015250565b7f416464726573733a20696e73756666696369656e742062616c616e636520666f60008201527f722063616c6c0000000000000000000000000000000000000000000000000000602082015250565b7f546f6b656e2062616c206e6f7420706f73697469766500000000000000000000600082015250565b7f617070726f7665206661696c6564000000000000000000000000000000000000600082015250565b7f4f776e61626c653a2063616c6c6572206973206e6f7420746865206f776e6572600082015250565b7f746f6b656e42616c616e6365206572726f722100000000000000000000000000600082015250565b7f4e6f7420656e6f75676820616d6f756e7420746f2072657475726e206c6f616e600082015250565b7f4e6f7420706f6f6c000000000000000000000000000000000000000000000000600082015250565b7f416464726573733a2063616c6c20746f206e6f6e2d636f6e7472616374000000600082015250565b7f5a65726f2062616c616e63650000000000000000000000000000000000000000600082015250565b7f5361666545524332303a204552433230206f7065726174696f6e20646964206e60008201527f6f74207375636365656400000000000000000000000000000000000000000000602082015250565b7f5265656e7472616e637947756172643a207265656e7472616e742063616c6c00600082015250565b613dce81613873565b8114613dd957600080fd5b50565b613de581613885565b8114613df057600080fd5b50565b613dfc816138bf565b8114613e0757600080fd5b50565b613e13816138ce565b8114613e1e57600080fd5b5056fea26469706673582212207b36820841193aaf3a8b9c12c366a2101877f79c532c51634a011702391a759864736f6c63430008040033",
  "devdoc": {
    "kind": "dev",
    "methods": {
      "owner()": {
        "details": "Returns the address of the current owner."
      },
      "renounceOwnership()": {
        "details": "Leaves the contract without owner. It will not be possible to call `onlyOwner` functions anymore. Can only be called by the current owner. NOTE: Renouncing ownership will leave the contract without an owner, thereby removing any functionality that is only available to the owner."
      },
      "transferOwnership(address)": {
        "details": "Transfers ownership of the contract to a new account (`newOwner`). Can only be called by the current owner."
      },
      "withdraw(address)": {
        "details": "Withdraw asset.",
        "params": {
          "_assetAddress": "Asset to be withdrawn."
        }
      }
    },
    "version": 1
  },
  "userdoc": {
    "kind": "user",
    "methods": {},
    "version": 1
  },
  "storageLayout": {
    "storage": [
      {
        "astId": 7,
        "contract": "contracts/AaveUniQuick.sol:AaveUniQuick",
        "label": "_owner",
        "offset": 0,
        "slot": "0",
        "type": "t_address"
      },
      {
        "astId": 115,
        "contract": "contracts/AaveUniQuick.sol:AaveUniQuick",
        "label": "_status",
        "offset": 0,
        "slot": "1",
        "type": "t_uint256"
      }
    ],
    "types": {
      "t_address": {
        "encoding": "inplace",
        "label": "address",
        "numberOfBytes": "20"
      },
      "t_uint256": {
        "encoding": "inplace",
        "label": "uint256",
        "numberOfBytes": "32"
      }
    }
  }
}