{
  "address": "0xB40fEf170104dBF45962F90e8ea6505252B9Ed0D",
  "abi": [
    {
      "inputs": [
        {
          "internalType": "contract IPoolAddressesProvider",
          "name": "_aaveAddressProvider",
          "type": "address"
        },
        {
          "internalType": "address",
          "name": "_uniswapV3Router",
          "type": "address"
        },
        {
          "internalType": "address",
          "name": "_sushiswapRouter",
          "type": "address"
        },
        {
          "internalType": "address",
          "name": "_sushiswapfactory",
          "type": "address"
        },
        {
          "internalType": "address",
          "name": "_quickswapV2RouterAddress",
          "type": "address"
        }
      ],
      "stateMutability": "nonpayable",
      "type": "constructor"
    },
    {
      "anonymous": false,
      "inputs": [
        {
          "indexed": true,
          "internalType": "address",
          "name": "_borrowedAsset",
          "type": "address"
        },
        {
          "indexed": true,
          "internalType": "uint256",
          "name": "_amount",
          "type": "uint256"
        },
        {
          "indexed": false,
          "internalType": "uint256",
          "name": "_premium",
          "type": "uint256"
        }
      ],
      "name": "AaveBorrowDetails",
      "type": "event"
    },
    {
      "anonymous": false,
      "inputs": [
        {
          "indexed": true,
          "internalType": "address",
          "name": "_from",
          "type": "address"
        },
        {
          "indexed": true,
          "internalType": "address",
          "name": "_assetAddress",
          "type": "address"
        },
        {
          "indexed": false,
          "internalType": "uint256",
          "name": "amount",
          "type": "uint256"
        }
      ],
      "name": "LogWithdraw",
      "type": "event"
    },
    {
      "anonymous": false,
      "inputs": [
        {
          "indexed": true,
          "internalType": "address",
          "name": "previousOwner",
          "type": "address"
        },
        {
          "indexed": true,
          "internalType": "address",
          "name": "newOwner",
          "type": "address"
        }
      ],
      "name": "OwnershipTransferred",
      "type": "event"
    },
    {
      "anonymous": false,
      "inputs": [
        {
          "indexed": true,
          "internalType": "address",
          "name": "_startToken",
          "type": "address"
        },
        {
          "indexed": true,
          "internalType": "uint256",
          "name": "_startAmount",
          "type": "uint256"
        },
        {
          "indexed": false,
          "internalType": "uint256",
          "name": "_endAmount",
          "type": "uint256"
        }
      ],
      "name": "TokensSwapped",
      "type": "event"
    },
    {
      "inputs": [],
      "name": "ADDRESSES_PROVIDER",
      "outputs": [
        {
          "internalType": "contract IPoolAddressesProvider",
          "name": "",
          "type": "address"
        }
      ],
      "stateMutability": "view",
      "type": "function"
    },
    {
      "inputs": [],
      "name": "POOL",
      "outputs": [
        {
          "internalType": "contract IPool",
          "name": "",
          "type": "address"
        }
      ],
      "stateMutability": "view",
      "type": "function"
    },
    {
      "inputs": [
        {
          "internalType": "address[]",
          "name": "assets",
          "type": "address[]"
        },
        {
          "internalType": "uint256[]",
          "name": "amounts",
          "type": "uint256[]"
        },
        {
          "internalType": "uint256[]",
          "name": "premiums",
          "type": "uint256[]"
        },
        {
          "internalType": "address",
          "name": "",
          "type": "address"
        },
        {
          "internalType": "bytes",
          "name": "params",
          "type": "bytes"
        }
      ],
      "name": "executeOperation",
      "outputs": [
        {
          "internalType": "bool",
          "name": "",
          "type": "bool"
        }
      ],
      "stateMutability": "nonpayable",
      "type": "function"
    },
    {
      "inputs": [],
      "name": "owner",
      "outputs": [
        {
          "internalType": "address",
          "name": "",
          "type": "address"
        }
      ],
      "stateMutability": "view",
      "type": "function"
    },
    {
      "inputs": [],
      "name": "quickRouter",
      "outputs": [
        {
          "internalType": "contract IUniswapV2Router02",
          "name": "",
          "type": "address"
        }
      ],
      "stateMutability": "view",
      "type": "function"
    },
    {
      "inputs": [],
      "name": "renounceOwnership",
      "outputs": [],
      "stateMutability": "nonpayable",
      "type": "function"
    },
    {
      "inputs": [
        {
          "components": [
            {
              "internalType": "address",
              "name": "token0",
              "type": "address"
            },
            {
              "internalType": "address",
              "name": "token1",
              "type": "address"
            },
            {
              "internalType": "uint24",
              "name": "pool1Fee",
              "type": "uint24"
            },
            {
              "internalType": "uint256",
              "name": "amount0",
              "type": "uint256"
            },
            {
              "internalType": "uint24",
              "name": "pool2Fee",
              "type": "uint24"
            },
            {
              "internalType": "address",
              "name": "sharedAddress",
              "type": "address"
            },
            {
              "internalType": "bool",
              "name": "uniuniquick",
              "type": "bool"
            },
            {
              "internalType": "bool",
              "name": "uniquick",
              "type": "bool"
            },
            {
              "internalType": "bool",
              "name": "unisushi",
              "type": "bool"
            },
            {
              "internalType": "bool",
              "name": "quickuni",
              "type": "bool"
            },
            {
              "internalType": "bool",
              "name": "quicksushi",
              "type": "bool"
            },
            {
              "internalType": "bool",
              "name": "sushiuni",
              "type": "bool"
            },
            {
              "internalType": "bool",
              "name": "sushiquick",
              "type": "bool"
            }
          ],
          "internalType": "struct AaveUniQuick.FlashParams",
          "name": "_data",
          "type": "tuple"
        }
      ],
      "name": "startTransaction",
      "outputs": [],
      "stateMutability": "nonpayable",
      "type": "function"
    },
    {
      "inputs": [
        {
          "internalType": "address",
          "name": "newOwner",
          "type": "address"
        }
      ],
      "name": "transferOwnership",
      "outputs": [],
      "stateMutability": "nonpayable",
      "type": "function"
    },
    {
      "inputs": [],
      "name": "uniswapV3Router",
      "outputs": [
        {
          "internalType": "contract ISwapRouter",
          "name": "",
          "type": "address"
        }
      ],
      "stateMutability": "view",
      "type": "function"
    },
    {
      "inputs": [
        {
          "internalType": "address",
          "name": "_assetAddress",
          "type": "address"
        }
      ],
      "name": "withdraw",
      "outputs": [],
      "stateMutability": "nonpayable",
      "type": "function"
    }
  ],
  "transactionHash": "0xf695f352f3f5cfefcc1011a39e6e4af87be6c37f3bf5772a9e8f55a4a0c0bfec",
  "args": [
    "0xa97684ead0e402dC232d5A977953DF7ECBaB3CDb",
    "0xE592427A0AEce92De3Edee1F18E0157C05861564",
    "0x1b02dA8Cb0d097eB8D57A175b88c7D8b47997506",
    "0xc35DADB65012eC5796536bD9864eD8773aBc74C4",
    "0xa5E0829CaCEd8fFDD4De3c43696c57F7D7A678ff"
  ],
  "numDeployments": 16,
  "solcInputHash": "86984c20807f89c32eabce586b1d6427",
  "bytecode": "0x6101406040523480156200001257600080fd5b5060405162003c0638038062003c0683398181016040528101906200003891906200035f565b848073ffffffffffffffffffffffffffffffffffffffff1660808173ffffffffffffffffffffffffffffffffffffffff1660601b815250508073ffffffffffffffffffffffffffffffffffffffff1663026b1d5f6040518163ffffffff1660e01b815260040160206040518083038186803b158015620000b757600080fd5b505afa158015620000cc573d6000803e3d6000fd5b505050506040513d601f19601f82011682018060405250810190620000f2919062000333565b73ffffffffffffffffffffffffffffffffffffffff1660a08173ffffffffffffffffffffffffffffffffffffffff1660601b8152505050620001496200013d6200023960201b60201c565b6200024160201b60201c565b600180819055508373ffffffffffffffffffffffffffffffffffffffff1660e08173ffffffffffffffffffffffffffffffffffffffff1660601b815250508073ffffffffffffffffffffffffffffffffffffffff1660c08173ffffffffffffffffffffffffffffffffffffffff1660601b815250508273ffffffffffffffffffffffffffffffffffffffff166101008173ffffffffffffffffffffffffffffffffffffffff1660601b815250508173ffffffffffffffffffffffffffffffffffffffff166101208173ffffffffffffffffffffffffffffffffffffffff1660601b8152505050505050506200045d565b600033905090565b60008060009054906101000a900473ffffffffffffffffffffffffffffffffffffffff169050816000806101000a81548173ffffffffffffffffffffffffffffffffffffffff021916908373ffffffffffffffffffffffffffffffffffffffff1602179055508173ffffffffffffffffffffffffffffffffffffffff168173ffffffffffffffffffffffffffffffffffffffff167f8be0079c531659141344cd1fd0a4f28419497f9722a3daafe3b4186f6b6457e060405160405180910390a35050565b600081519050620003168162000429565b92915050565b6000815190506200032d8162000443565b92915050565b6000602082840312156200034657600080fd5b6000620003568482850162000305565b91505092915050565b600080600080600060a086880312156200037857600080fd5b600062000388888289016200031c565b95505060206200039b8882890162000305565b9450506040620003ae8882890162000305565b9350506060620003c18882890162000305565b9250506080620003d48882890162000305565b9150509295509295909350565b6000620003ee8262000409565b9050919050565b60006200040282620003e1565b9050919050565b600073ffffffffffffffffffffffffffffffffffffffff82169050919050565b6200043481620003e1565b81146200044057600080fd5b50565b6200044e81620003f5565b81146200045a57600080fd5b50565b60805160601c60a05160601c60c05160601c60e05160601c6101005160601c6101205160601c613708620004fe600039600061193b01526000611a5e0152600081816104560152818161133a015281816113d6015281816117b2015261188201526000818161081c015281816114ac015261169c0152600081816107f80152818161094701528181610b7e0152610e0d015260006101c901526137086000f3fe608060405234801561001057600080fd5b506004361061009e5760003560e01c80637535d246116100665780637535d246146101215780638d252c621461013f5780638da5cb5b1461015d578063920f5c841461017b578063f2fde38b146101ab5761009e565b80630542975c146100a35780630cbc9759146100c15780632c76d7a6146100dd57806351cff8d9146100fb578063715018a614610117575b600080fd5b6100ab6101c7565b6040516100b89190612db4565b60405180910390f35b6100db60048036038101906100d6919061260e565b6101eb565b005b6100e5610454565b6040516100f29190612dea565b60405180910390f35b6101156004803603810190610110919061246a565b610478565b005b61011f61076e565b005b6101296107f6565b6040516101369190612dcf565b60405180910390f35b61014761081a565b6040516101549190612e05565b60405180910390f35b61016561083e565b6040516101729190612ca1565b60405180910390f35b610195600480360381019061019091906124bc565b610867565b6040516101a29190612d99565b60405180910390f35b6101c560048036038101906101c0919061246a565b610c25565b005b7f000000000000000000000000000000000000000000000000000000000000000081565b6101f3610d1d565b73ffffffffffffffffffffffffffffffffffffffff1661021161083e565b73ffffffffffffffffffffffffffffffffffffffff1614610267576040517f08c379a000000000000000000000000000000000000000000000000000000000815260040161025e90612e80565b60405180910390fd5b60008160000151905060008260600151905060008360405160200161028c9190612f5e565b60405160208183030381529060405290506000600167ffffffffffffffff8111156102e0577f4e487b7100000000000000000000000000000000000000000000000000000000600052604160045260246000fd5b60405190808252806020026020018201604052801561030e5781602001602082028036833780820191505090505b509050838160008151811061034c577f4e487b7100000000000000000000000000000000000000000000000000000000600052603260045260246000fd5b602002602001019073ffffffffffffffffffffffffffffffffffffffff16908173ffffffffffffffffffffffffffffffffffffffff16815250506000600167ffffffffffffffff8111156103c9577f4e487b7100000000000000000000000000000000000000000000000000000000600052604160045260246000fd5b6040519080825280602002602001820160405280156103f75781602001602082028036833780820191505090505b5090508381600081518110610435577f4e487b7100000000000000000000000000000000000000000000000000000000600052603260045260246000fd5b60200260200101818152505061044c828285610d25565b505050505050565b7f000000000000000000000000000000000000000000000000000000000000000081565b610480610d1d565b73ffffffffffffffffffffffffffffffffffffffff1661049e61083e565b73ffffffffffffffffffffffffffffffffffffffff16146104f4576040517f08c379a00000000000000000000000000000000000000000000000000000000081526004016104eb90612e80565b60405180910390fd5b6002600154141561053a576040517f08c379a000000000000000000000000000000000000000000000000000000000815260040161053190612f00565b60405180910390fd5b600260018190555060008073ffffffffffffffffffffffffffffffffffffffff168273ffffffffffffffffffffffffffffffffffffffff1614156105e45760003090508073ffffffffffffffffffffffffffffffffffffffff163191503373ffffffffffffffffffffffffffffffffffffffff166108fc839081150290604051600060405180830381858888f193505050501580156105dd573d6000803e3d6000fd5b50506106fe565b8173ffffffffffffffffffffffffffffffffffffffff166370a08231306040518263ffffffff1660e01b815260040161061d9190612ca1565b60206040518083038186803b15801561063557600080fd5b505afa158015610649573d6000803e3d6000fd5b505050506040513d601f19601f8201168201806040525081019061066d9190612638565b90508173ffffffffffffffffffffffffffffffffffffffff1663a9059cbb33836040518363ffffffff1660e01b81526004016106aa929190612d70565b602060405180830381600087803b1580156106c457600080fd5b505af11580156106d8573d6000803e3d6000fd5b505050506040513d601f19601f820116820180604052508101906106fc91906125e5565b505b8173ffffffffffffffffffffffffffffffffffffffff163373ffffffffffffffffffffffffffffffffffffffff167f9207361cc2a04b9c7a06691df1eb87c6a63957ae88bf01d0d18c81e3d12720998360405161075b9190612f7a565b60405180910390a3506001808190555050565b610776610d1d565b73ffffffffffffffffffffffffffffffffffffffff1661079461083e565b73ffffffffffffffffffffffffffffffffffffffff16146107ea576040517f08c379a00000000000000000000000000000000000000000000000000000000081526004016107e190612e80565b60405180910390fd5b6107f46000610eab565b565b7f000000000000000000000000000000000000000000000000000000000000000081565b7f000000000000000000000000000000000000000000000000000000000000000081565b60008060009054906101000a900473ffffffffffffffffffffffffffffffffffffffff16905090565b6000808a8a60008181106108a4577f4e487b7100000000000000000000000000000000000000000000000000000000600052603260045260246000fd5b90506020020160208101906108b9919061246a565b90506000898960008181106108f7577f4e487b7100000000000000000000000000000000000000000000000000000000600052603260045260246000fd5b90506020020135905060008888600081811061093c577f4e487b7100000000000000000000000000000000000000000000000000000000600052603260045260246000fd5b9050602002013590507f000000000000000000000000000000000000000000000000000000000000000073ffffffffffffffffffffffffffffffffffffffff163373ffffffffffffffffffffffffffffffffffffffff16146109d3576040517f08c379a00000000000000000000000000000000000000000000000000000000081526004016109ca90612ec0565b60405180910390fd5b60008373ffffffffffffffffffffffffffffffffffffffff166370a08231306040518263ffffffff1660e01b8152600401610a0e9190612ca1565b60206040518083038186803b158015610a2657600080fd5b505afa158015610a3a573d6000803e3d6000fd5b505050506040513d601f19601f82011682018060405250810190610a5e9190612638565b905060008311610aa3576040517f08c379a0000000000000000000000000000000000000000000000000000000008152600401610a9a90612ee0565b60405180910390fd5b828114610ae5576040517f08c379a0000000000000000000000000000000000000000000000000000000008152600401610adc90612ea0565b60405180910390fd5b828473ffffffffffffffffffffffffffffffffffffffff167f2e30dc796dffed39db84c7dd3248c08d1852da65e0e3da58b6cde0d73844133784604051610b2c9190612f7a565b60405180910390a360008787810190610b45919061260e565b9050610b5081610f6f565b60008385610b5e9190613185565b90508573ffffffffffffffffffffffffffffffffffffffff1663095ea7b37f0000000000000000000000000000000000000000000000000000000000000000836040518363ffffffff1660e01b8152600401610bbb929190612d70565b602060405180830381600087803b158015610bd557600080fd5b505af1158015610be9573d6000803e3d6000fd5b505050506040513d601f19601f82011682018060405250810190610c0d91906125e5565b50600196505050505050509998505050505050505050565b610c2d610d1d565b73ffffffffffffffffffffffffffffffffffffffff16610c4b61083e565b73ffffffffffffffffffffffffffffffffffffffff1614610ca1576040517f08c379a0000000000000000000000000000000000000000000000000000000008152600401610c9890612e80565b60405180910390fd5b600073ffffffffffffffffffffffffffffffffffffffff168173ffffffffffffffffffffffffffffffffffffffff161415610d11576040517f08c379a0000000000000000000000000000000000000000000000000000000008152600401610d0890612e60565b60405180910390fd5b610d1a81610eab565b50565b600033905090565b60003090506000309050600080865167ffffffffffffffff811115610d73577f4e487b7100000000000000000000000000000000000000000000000000000000600052604160045260246000fd5b604051908082528060200260200182016040528015610da15781602001602082028036833780820191505090505b50905060005b8751811015610e0a576000828281518110610deb577f4e487b7100000000000000000000000000000000000000000000000000000000600052603260045260246000fd5b6020026020010181815250508080610e02906133d1565b915050610da7565b507f000000000000000000000000000000000000000000000000000000000000000073ffffffffffffffffffffffffffffffffffffffff1663ab9c4b5d85898985888b896040518863ffffffff1660e01b8152600401610e709796959493929190612ce5565b600060405180830381600087803b158015610e8a57600080fd5b505af1158015610e9e573d6000803e3d6000fd5b5050505050505050505050565b60008060009054906101000a900473ffffffffffffffffffffffffffffffffffffffff169050816000806101000a81548173ffffffffffffffffffffffffffffffffffffffff021916908373ffffffffffffffffffffffffffffffffffffffff1602179055508173ffffffffffffffffffffffffffffffffffffffff168173ffffffffffffffffffffffffffffffffffffffff167f8be0079c531659141344cd1fd0a4f28419497f9722a3daafe3b4186f6b6457e060405160405180910390a35050565b60008160000151905060008260200151905060008360400151905060008460a00151905060008560800151905060008660600151905060008760c0015115611055576000610fc183898888888c611332565b90508673ffffffffffffffffffffffffffffffffffffffff168873ffffffffffffffffffffffffffffffffffffffff16146110045761100181888a61148c565b91505b828873ffffffffffffffffffffffffffffffffffffffff167f18704ae982dcd24a1beeeed3ecf045ab0520d7b7519b97adf3e4f40bf7efe3398460405161104b9190612f7a565b60405180910390a3505b8760e00151156110cd57600061106d838989896117aa565b905061107a81888a61148c565b9150828873ffffffffffffffffffffffffffffffffffffffff167f18704ae982dcd24a1beeeed3ecf045ab0520d7b7519b97adf3e4f40bf7efe339846040516110c39190612f7a565b60405180910390a3505b876101000151156111465760006110e6838989896117aa565b90506110f387828a611936565b9150828873ffffffffffffffffffffffffffffffffffffffff167f18704ae982dcd24a1beeeed3ecf045ab0520d7b7519b97adf3e4f40bf7efe3398460405161113c9190612f7a565b60405180910390a3505b876101200151156111bf57600061115e83898961148c565b905061116c81888a896117aa565b9150828873ffffffffffffffffffffffffffffffffffffffff167f18704ae982dcd24a1beeeed3ecf045ab0520d7b7519b97adf3e4f40bf7efe339846040516111b59190612f7a565b60405180910390a3505b876101400151156112375760006111d783898961148c565b90506111e487828a611936565b9150828873ffffffffffffffffffffffffffffffffffffffff167f18704ae982dcd24a1beeeed3ecf045ab0520d7b7519b97adf3e4f40bf7efe3398460405161122d9190612f7a565b60405180910390a3505b876101600151156112b057600061124f888489611936565b905061125d81888a896117aa565b9150828873ffffffffffffffffffffffffffffffffffffffff167f18704ae982dcd24a1beeeed3ecf045ab0520d7b7519b97adf3e4f40bf7efe339846040516112a69190612f7a565b60405180910390a3505b876101800151156113285760006112c8888489611936565b90506112d581888a61148c565b9150828873ffffffffffffffffffffffffffffffffffffffff167f18704ae982dcd24a1beeeed3ecf045ab0520d7b7519b97adf3e4f40bf7efe3398460405161131e9190612f7a565b60405180910390a3505b5050505050505050565b600061135f867f000000000000000000000000000000000000000000000000000000000000000089611a92565b60006040518060a001604052808888888888604051602001611385959493929190612c2b565b60405160208183030381529060405281526020013073ffffffffffffffffffffffffffffffffffffffff16815260200160c8426113c29190613185565b8152602001898152602001600081525090507f000000000000000000000000000000000000000000000000000000000000000073ffffffffffffffffffffffffffffffffffffffff1663c04b8d59826040518263ffffffff1660e01b815260040161142d9190612f20565b602060405180830381600087803b15801561144757600080fd5b505af115801561145b573d6000803e3d6000fd5b505050506040513d601f19601f8201168201806040525081019061147f9190612638565b9150509695505050505050565b60008273ffffffffffffffffffffffffffffffffffffffff1663095ea7b37f0000000000000000000000000000000000000000000000000000000000000000866040518363ffffffff1660e01b81526004016114e9929190612d70565b602060405180830381600087803b15801561150357600080fd5b505af1158015611517573d6000803e3d6000fd5b505050506040513d601f19601f8201168201806040525081019061153b91906125e5565b506000600267ffffffffffffffff81111561157f577f4e487b7100000000000000000000000000000000000000000000000000000000600052604160045260246000fd5b6040519080825280602002602001820160405280156115ad5781602001602082028036833780820191505090505b50905083816000815181106115eb577f4e487b7100000000000000000000000000000000000000000000000000000000600052603260045260246000fd5b602002602001019073ffffffffffffffffffffffffffffffffffffffff16908173ffffffffffffffffffffffffffffffffffffffff16815250508281600181518110611660577f4e487b7100000000000000000000000000000000000000000000000000000000600052603260045260246000fd5b602002602001019073ffffffffffffffffffffffffffffffffffffffff16908173ffffffffffffffffffffffffffffffffffffffff16815250507f000000000000000000000000000000000000000000000000000000000000000073ffffffffffffffffffffffffffffffffffffffff166338ed1739866000843060c8426116e89190613185565b6040518663ffffffff1660e01b8152600401611708959493929190612fc5565b600060405180830381600087803b15801561172257600080fd5b505af1158015611736573d6000803e3d6000fd5b505050506040513d6000823e3d601f19601f8201168201806040525081019061175f91906125a4565b600181518110611798577f4e487b7100000000000000000000000000000000000000000000000000000000600052603260045260246000fd5b60200260200101519150509392505050565b60006117d7847f000000000000000000000000000000000000000000000000000000000000000087611a92565b60006040518061010001604052808673ffffffffffffffffffffffffffffffffffffffff1681526020018573ffffffffffffffffffffffffffffffffffffffff1681526020018462ffffff1681526020013073ffffffffffffffffffffffffffffffffffffffff16815260200160c8426118519190613185565b815260200187815260200160008152602001600073ffffffffffffffffffffffffffffffffffffffff1681525090507f000000000000000000000000000000000000000000000000000000000000000073ffffffffffffffffffffffffffffffffffffffff1663414bf389826040518263ffffffff1660e01b81526004016118d99190612f42565b602060405180830381600087803b1580156118f357600080fd5b505af1158015611907573d6000803e3d6000fd5b505050506040513d601f19601f8201168201806040525081019061192b9190612638565b915050949350505050565b6000807f000000000000000000000000000000000000000000000000000000000000000073ffffffffffffffffffffffffffffffffffffffff1663e6a4390586856040518363ffffffff1660e01b8152600401611994929190612cbc565b60206040518083038186803b1580156119ac57600080fd5b505afa1580156119c0573d6000803e3d6000fd5b505050506040513d601f19601f820116820180604052508101906119e49190612493565b9050600073ffffffffffffffffffffffffffffffffffffffff168173ffffffffffffffffffffffffffffffffffffffff161415611a56576040517f08c379a0000000000000000000000000000000000000000000000000000000008152600401611a4d90612e40565b60405180910390fd5b6000611a84857f00000000000000000000000000000000000000000000000000000000000000008887611be7565b905080925050509392505050565b6000808473ffffffffffffffffffffffffffffffffffffffff1663095ea7b360e01b8585604051602401611ac7929190612d70565b604051602081830303815290604052907bffffffffffffffffffffffffffffffffffffffffffffffffffffffff19166020820180517bffffffffffffffffffffffffffffffffffffffffffffffffffffffff8381831617835250505050604051611b319190612c8a565b6000604051808303816000865af19150503d8060008114611b6e576040519150601f19603f3d011682016040523d82523d6000602084013e611b73565b606091505b5091509150818015611ba15750600081511480611ba0575080806020019051810190611b9f91906125e5565b5b5b611be0576040517f08c379a0000000000000000000000000000000000000000000000000000000008152600401611bd790612e20565b60405180910390fd5b5050505050565b60008273ffffffffffffffffffffffffffffffffffffffff1663095ea7b385876040518363ffffffff1660e01b8152600401611c24929190612d70565b602060405180830381600087803b158015611c3e57600080fd5b505af1158015611c52573d6000803e3d6000fd5b505050506040513d601f19601f82011682018060405250810190611c7691906125e5565b5060006064605f611c898787878b611ef4565b611c93919061320c565b611c9d91906131db565b90506000600267ffffffffffffffff811115611ce2577f4e487b7100000000000000000000000000000000000000000000000000000000600052604160045260246000fd5b604051908082528060200260200182016040528015611d105781602001602082028036833780820191505090505b5090508481600081518110611d4e577f4e487b7100000000000000000000000000000000000000000000000000000000600052603260045260246000fd5b602002602001019073ffffffffffffffffffffffffffffffffffffffff16908173ffffffffffffffffffffffffffffffffffffffff16815250508381600181518110611dc3577f4e487b7100000000000000000000000000000000000000000000000000000000600052603260045260246000fd5b602002602001019073ffffffffffffffffffffffffffffffffffffffff16908173ffffffffffffffffffffffffffffffffffffffff168152505060008673ffffffffffffffffffffffffffffffffffffffff166338ed17398985853060c842611e2c9190613185565b6040518663ffffffff1660e01b8152600401611e4c95949392919061301f565b600060405180830381600087803b158015611e6657600080fd5b505af1158015611e7a573d6000803e3d6000fd5b505050506040513d6000823e3d601f19601f82011682018060405250810190611ea391906125a4565b600181518110611edc577f4e487b7100000000000000000000000000000000000000000000000000000000600052603260045260246000fd5b60200260200101519050809350505050949350505050565b600080600267ffffffffffffffff811115611f38577f4e487b7100000000000000000000000000000000000000000000000000000000600052604160045260246000fd5b604051908082528060200260200182016040528015611f665781602001602082028036833780820191505090505b5090508481600081518110611fa4577f4e487b7100000000000000000000000000000000000000000000000000000000600052603260045260246000fd5b602002602001019073ffffffffffffffffffffffffffffffffffffffff16908173ffffffffffffffffffffffffffffffffffffffff16815250508381600181518110612019577f4e487b7100000000000000000000000000000000000000000000000000000000600052603260045260246000fd5b602002602001019073ffffffffffffffffffffffffffffffffffffffff16908173ffffffffffffffffffffffffffffffffffffffff16815250508573ffffffffffffffffffffffffffffffffffffffff1663d06ca61f84836040518363ffffffff1660e01b815260040161208e929190612f95565b60006040518083038186803b1580156120a657600080fd5b505afa1580156120ba573d6000803e3d6000fd5b505050506040513d6000823e3d601f19601f820116820180604052508101906120e391906125a4565b60018151811061211c577f4e487b7100000000000000000000000000000000000000000000000000000000600052603260045260246000fd5b6020026020010151915050949350505050565b600061214261213d8461309e565b613079565b9050808382526020820190508285602086028201111561216157600080fd5b60005b8581101561219157816121778882612455565b845260208401935060208301925050600181019050612164565b5050509392505050565b6000813590506121aa81613676565b92915050565b6000815190506121bf81613676565b92915050565b60008083601f8401126121d757600080fd5b8235905067ffffffffffffffff8111156121f057600080fd5b60208301915083602082028301111561220857600080fd5b9250929050565b60008083601f84011261222157600080fd5b8235905067ffffffffffffffff81111561223a57600080fd5b60208301915083602082028301111561225257600080fd5b9250929050565b600082601f83011261226a57600080fd5b815161227a84826020860161212f565b91505092915050565b6000813590506122928161368d565b92915050565b6000815190506122a78161368d565b92915050565b60008083601f8401126122bf57600080fd5b8235905067ffffffffffffffff8111156122d857600080fd5b6020830191508360018202830111156122f057600080fd5b9250929050565b60006101a0828403121561230a57600080fd5b6123156101a0613079565b905060006123258482850161219b565b60008301525060206123398482850161219b565b602083015250604061234d8482850161242b565b604083015250606061236184828501612440565b60608301525060806123758482850161242b565b60808301525060a06123898482850161219b565b60a08301525060c061239d84828501612283565b60c08301525060e06123b184828501612283565b60e0830152506101006123c684828501612283565b610100830152506101206123dc84828501612283565b610120830152506101406123f284828501612283565b6101408301525061016061240884828501612283565b6101608301525061018061241e84828501612283565b6101808301525092915050565b60008135905061243a816136a4565b92915050565b60008135905061244f816136bb565b92915050565b600081519050612464816136bb565b92915050565b60006020828403121561247c57600080fd5b600061248a8482850161219b565b91505092915050565b6000602082840312156124a557600080fd5b60006124b3848285016121b0565b91505092915050565b600080600080600080600080600060a08a8c0312156124da57600080fd5b60008a013567ffffffffffffffff8111156124f457600080fd5b6125008c828d016121c5565b995099505060208a013567ffffffffffffffff81111561251f57600080fd5b61252b8c828d0161220f565b975097505060408a013567ffffffffffffffff81111561254a57600080fd5b6125568c828d0161220f565b955095505060606125698c828d0161219b565b93505060808a013567ffffffffffffffff81111561258657600080fd5b6125928c828d016122ad565b92509250509295985092959850929598565b6000602082840312156125b657600080fd5b600082015167ffffffffffffffff8111156125d057600080fd5b6125dc84828501612259565b91505092915050565b6000602082840312156125f757600080fd5b600061260584828501612298565b91505092915050565b60006101a0828403121561262157600080fd5b600061262f848285016122f7565b91505092915050565b60006020828403121561264a57600080fd5b600061265884828501612455565b91505092915050565b600061266d8383612691565b60208301905092915050565b60006126858383612c0d565b60208301905092915050565b61269a81613266565b82525050565b6126a981613266565b82525050565b6126c06126bb82613266565b61341a565b82525050565b60006126d1826130ea565b6126db8185613125565b93506126e6836130ca565b8060005b838110156127175781516126fe8882612661565b97506127098361310b565b9250506001810190506126ea565b5085935050505092915050565b600061272f826130f5565b6127398185613136565b9350612744836130da565b8060005b8381101561277557815161275c8882612679565b975061276783613118565b925050600181019050612748565b5085935050505092915050565b61278b81613278565b82525050565b61279a81613278565b82525050565b60006127ab82613100565b6127b58185613147565b93506127c581856020860161336d565b6127ce816134dd565b840191505092915050565b60006127e482613100565b6127ee8185613158565b93506127fe81856020860161336d565b612807816134dd565b840191505092915050565b600061281d82613100565b6128278185613169565b935061283781856020860161336d565b80840191505092915050565b61284c816132cb565b82525050565b61285b816132ef565b82525050565b61286a81613313565b82525050565b61287981613337565b82525050565b6128888161335b565b82525050565b600061289b600283613174565b91506128a682613508565b602082019050919050565b60006128be600f83613174565b91506128c982613531565b602082019050919050565b60006128e1602683613174565b91506128ec8261355a565b604082019050919050565b6000612904602083613174565b915061290f826135a9565b602082019050919050565b6000612927601383613174565b9150612932826135d2565b602082019050919050565b600061294a600883613174565b9150612955826135fb565b602082019050919050565b600061296d600c83613174565b915061297882613624565b602082019050919050565b6000612990601f83613174565b915061299b8261364d565b602082019050919050565b600060a08301600083015184820360008601526129c382826127a0565b91505060208301516129d86020860182612691565b5060408301516129eb6040860182612c0d565b5060608301516129fe6060860182612c0d565b506080830151612a116080860182612c0d565b508091505092915050565b61010082016000820151612a336000850182612691565b506020820151612a466020850182612691565b506040820151612a596040850182612be7565b506060820151612a6c6060850182612691565b506080820151612a7f6080850182612c0d565b5060a0820151612a9260a0850182612c0d565b5060c0820151612aa560c0850182612c0d565b5060e0820151612ab860e0850182612bc9565b50505050565b6101a082016000820151612ad56000850182612691565b506020820151612ae86020850182612691565b506040820151612afb6040850182612be7565b506060820151612b0e6060850182612c0d565b506080820151612b216080850182612be7565b5060a0820151612b3460a0850182612691565b5060c0820151612b4760c0850182612782565b5060e0820151612b5a60e0850182612782565b50610100820151612b6f610100850182612782565b50610120820151612b84610120850182612782565b50610140820151612b99610140850182612782565b50610160820151612bae610160850182612782565b50610180820151612bc3610180850182612782565b50505050565b612bd281613292565b82525050565b612be181613284565b82525050565b612bf0816132b2565b82525050565b612c07612c02826132b2565b61343e565b82525050565b612c16816132c1565b82525050565b612c25816132c1565b82525050565b6000612c3782886126af565b601482019150612c478287612bf6565b600382019150612c5782866126af565b601482019150612c678285612bf6565b600382019150612c7782846126af565b6014820191508190509695505050505050565b6000612c968284612812565b915081905092915050565b6000602082019050612cb660008301846126a0565b92915050565b6000604082019050612cd160008301856126a0565b612cde60208301846126a0565b9392505050565b600060e082019050612cfa600083018a6126a0565b8181036020830152612d0c81896126c6565b90508181036040830152612d208188612724565b90508181036060830152612d348187612724565b9050612d4360808301866126a0565b81810360a0830152612d5581856127d9565b9050612d6460c0830184612bd8565b98975050505050505050565b6000604082019050612d8560008301856126a0565b612d926020830184612c1c565b9392505050565b6000602082019050612dae6000830184612791565b92915050565b6000602082019050612dc96000830184612843565b92915050565b6000602082019050612de46000830184612852565b92915050565b6000602082019050612dff6000830184612861565b92915050565b6000602082019050612e1a6000830184612870565b92915050565b60006020820190508181036000830152612e398161288e565b9050919050565b60006020820190508181036000830152612e59816128b1565b9050919050565b60006020820190508181036000830152612e79816128d4565b9050919050565b60006020820190508181036000830152612e99816128f7565b9050919050565b60006020820190508181036000830152612eb98161291a565b9050919050565b60006020820190508181036000830152612ed98161293d565b9050919050565b60006020820190508181036000830152612ef981612960565b9050919050565b60006020820190508181036000830152612f1981612983565b9050919050565b60006020820190508181036000830152612f3a81846129a6565b905092915050565b600061010082019050612f586000830184612a1c565b92915050565b60006101a082019050612f746000830184612abe565b92915050565b6000602082019050612f8f6000830184612c1c565b92915050565b6000604082019050612faa6000830185612c1c565b8181036020830152612fbc81846126c6565b90509392505050565b600060a082019050612fda6000830188612c1c565b612fe7602083018761287f565b8181036040830152612ff981866126c6565b905061300860608301856126a0565b6130156080830184612c1c565b9695505050505050565b600060a0820190506130346000830188612c1c565b6130416020830187612c1c565b818103604083015261305381866126c6565b905061306260608301856126a0565b61306f6080830184612c1c565b9695505050505050565b6000613083613094565b905061308f82826133a0565b919050565b6000604051905090565b600067ffffffffffffffff8211156130b9576130b86134ae565b5b602082029050602081019050919050565b6000819050602082019050919050565b6000819050602082019050919050565b600081519050919050565b600081519050919050565b600081519050919050565b6000602082019050919050565b6000602082019050919050565b600082825260208201905092915050565b600082825260208201905092915050565b600082825260208201905092915050565b600082825260208201905092915050565b600081905092915050565b600082825260208201905092915050565b6000613190826132c1565b915061319b836132c1565b9250827fffffffffffffffffffffffffffffffffffffffffffffffffffffffffffffffff038211156131d0576131cf613450565b5b828201905092915050565b60006131e6826132c1565b91506131f1836132c1565b9250826132015761320061347f565b5b828204905092915050565b6000613217826132c1565b9150613222836132c1565b9250817fffffffffffffffffffffffffffffffffffffffffffffffffffffffffffffffff048311821515161561325b5761325a613450565b5b828202905092915050565b600061327182613292565b9050919050565b60008115159050919050565b600061ffff82169050919050565b600073ffffffffffffffffffffffffffffffffffffffff82169050919050565b600062ffffff82169050919050565b6000819050919050565b60006132d6826132dd565b9050919050565b60006132e882613292565b9050919050565b60006132fa82613301565b9050919050565b600061330c82613292565b9050919050565b600061331e82613325565b9050919050565b600061333082613292565b9050919050565b600061334282613349565b9050919050565b600061335482613292565b9050919050565b6000613366826132c1565b9050919050565b60005b8381101561338b578082015181840152602081019050613370565b8381111561339a576000848401525b50505050565b6133a9826134dd565b810181811067ffffffffffffffff821117156133c8576133c76134ae565b5b80604052505050565b60006133dc826132c1565b91507fffffffffffffffffffffffffffffffffffffffffffffffffffffffffffffffff82141561340f5761340e613450565b5b600182019050919050565b60006134258261342c565b9050919050565b6000613437826134fb565b9050919050565b6000613449826134ee565b9050919050565b7f4e487b7100000000000000000000000000000000000000000000000000000000600052601160045260246000fd5b7f4e487b7100000000000000000000000000000000000000000000000000000000600052601260045260246000fd5b7f4e487b7100000000000000000000000000000000000000000000000000000000600052604160045260246000fd5b6000601f19601f8301169050919050565b60008160e81b9050919050565b60008160601b9050919050565b7f5341000000000000000000000000000000000000000000000000000000000000600082015250565b7f506f6f6c206e6f7420666f756e64210000000000000000000000000000000000600082015250565b7f4f776e61626c653a206e6577206f776e657220697320746865207a65726f206160008201527f6464726573730000000000000000000000000000000000000000000000000000602082015250565b7f4f776e61626c653a2063616c6c6572206973206e6f7420746865206f776e6572600082015250565b7f746f6b656e42616c616e6365206572726f722100000000000000000000000000600082015250565b7f4e6f7420706f6f6c000000000000000000000000000000000000000000000000600082015250565b7f5a65726f2062616c616e63650000000000000000000000000000000000000000600082015250565b7f5265656e7472616e637947756172643a207265656e7472616e742063616c6c00600082015250565b61367f81613266565b811461368a57600080fd5b50565b61369681613278565b81146136a157600080fd5b50565b6136ad816132b2565b81146136b857600080fd5b50565b6136c4816132c1565b81146136cf57600080fd5b5056fea26469706673582212201d6627d137f5b9b16236dcd11108c234b519bdae92531266ec0f3708ab24237864736f6c63430008040033",
  "devdoc": {
    "kind": "dev",
    "methods": {
      "owner()": {
        "details": "Returns the address of the current owner."
      },
      "renounceOwnership()": {
        "details": "Leaves the contract without owner. It will not be possible to call `onlyOwner` functions anymore. Can only be called by the current owner. NOTE: Renouncing ownership will leave the contract without an owner, thereby removing any functionality that is only available to the owner."
      },
      "transferOwnership(address)": {
        "details": "Transfers ownership of the contract to a new account (`newOwner`). Can only be called by the current owner."
      },
      "withdraw(address)": {
        "details": "Withdraw asset.",
        "params": {
          "_assetAddress": "Asset to be withdrawn."
        }
      }
    },
    "version": 1
  },
  "userdoc": {
    "kind": "user",
    "methods": {},
    "version": 1
  },
  "storageLayout": {
    "storage": [
      {
        "astId": 7,
        "contract": "contracts/AaveUniQuick.sol:AaveUniQuick",
        "label": "_owner",
        "offset": 0,
        "slot": "0",
        "type": "t_address"
      },
      {
        "astId": 115,
        "contract": "contracts/AaveUniQuick.sol:AaveUniQuick",
        "label": "_status",
        "offset": 0,
        "slot": "1",
        "type": "t_uint256"
      }
    ],
    "types": {
      "t_address": {
        "encoding": "inplace",
        "label": "address",
        "numberOfBytes": "20"
      },
      "t_uint256": {
        "encoding": "inplace",
        "label": "uint256",
        "numberOfBytes": "32"
      }
    }
  }
}